{
  "_format": "hh-sol-artifact-1",
  "contractName": "Wearable",
  "sourceName": "contracts/Wearable.sol",
  "abi": [
    {
      "inputs": [],
      "stateMutability": "nonpayable",
      "type": "constructor"
    },
    {
      "anonymous": false,
      "inputs": [
        {
          "indexed": true,
          "internalType": "address",
          "name": "owner",
          "type": "address"
        },
        {
          "indexed": true,
          "internalType": "address",
          "name": "approved",
          "type": "address"
        },
        {
          "indexed": true,
          "internalType": "uint256",
          "name": "tokenId",
          "type": "uint256"
        }
      ],
      "name": "Approval",
      "type": "event"
    },
    {
      "anonymous": false,
      "inputs": [
        {
          "indexed": true,
          "internalType": "address",
          "name": "owner",
          "type": "address"
        },
        {
          "indexed": true,
          "internalType": "address",
          "name": "operator",
          "type": "address"
        },
        {
          "indexed": false,
          "internalType": "bool",
          "name": "approved",
          "type": "bool"
        }
      ],
      "name": "ApprovalForAll",
      "type": "event"
    },
    {
      "anonymous": false,
      "inputs": [
        {
          "indexed": true,
          "internalType": "address",
          "name": "previousOwner",
          "type": "address"
        },
        {
          "indexed": true,
          "internalType": "address",
          "name": "newOwner",
          "type": "address"
        }
      ],
      "name": "OwnershipTransferred",
      "type": "event"
    },
    {
      "anonymous": false,
      "inputs": [
        {
          "indexed": false,
          "internalType": "address",
          "name": "account",
          "type": "address"
        }
      ],
      "name": "Paused",
      "type": "event"
    },
    {
      "anonymous": false,
      "inputs": [
        {
          "indexed": true,
          "internalType": "address",
          "name": "from",
          "type": "address"
        },
        {
          "indexed": true,
          "internalType": "address",
          "name": "to",
          "type": "address"
        },
        {
          "indexed": true,
          "internalType": "uint256",
          "name": "tokenId",
          "type": "uint256"
        }
      ],
      "name": "Transfer",
      "type": "event"
    },
    {
      "anonymous": false,
      "inputs": [
        {
          "indexed": false,
          "internalType": "address",
          "name": "account",
          "type": "address"
        }
      ],
      "name": "Unpaused",
      "type": "event"
    },
    {
      "inputs": [
        {
          "internalType": "address",
          "name": "to",
          "type": "address"
        },
        {
          "internalType": "uint256",
          "name": "tokenId",
          "type": "uint256"
        }
      ],
      "name": "approve",
      "outputs": [],
      "stateMutability": "nonpayable",
      "type": "function"
    },
    {
      "inputs": [
        {
          "internalType": "address",
          "name": "owner",
          "type": "address"
        }
      ],
      "name": "balanceOf",
      "outputs": [
        {
          "internalType": "uint256",
          "name": "",
          "type": "uint256"
        }
      ],
      "stateMutability": "view",
      "type": "function"
    },
    {
      "inputs": [
        {
          "internalType": "uint256",
          "name": "tokenId",
          "type": "uint256"
        }
      ],
      "name": "destroyNFT",
      "outputs": [],
      "stateMutability": "nonpayable",
      "type": "function"
    },
    {
      "inputs": [
        {
          "internalType": "uint256",
          "name": "tokenId",
          "type": "uint256"
        }
      ],
      "name": "getApproved",
      "outputs": [
        {
          "internalType": "address",
          "name": "",
          "type": "address"
        }
      ],
      "stateMutability": "view",
      "type": "function"
    },
    {
      "inputs": [
        {
          "internalType": "address",
          "name": "owner",
          "type": "address"
        },
        {
          "internalType": "address",
          "name": "operator",
          "type": "address"
        }
      ],
      "name": "isApprovedForAll",
      "outputs": [
        {
          "internalType": "bool",
          "name": "",
          "type": "bool"
        }
      ],
      "stateMutability": "view",
      "type": "function"
    },
    {
      "inputs": [
        {
          "internalType": "address",
          "name": "recipient",
          "type": "address"
        },
        {
          "internalType": "string",
          "name": "uri",
          "type": "string"
        }
      ],
      "name": "mintNFT",
      "outputs": [
        {
          "internalType": "uint256",
          "name": "",
          "type": "uint256"
        }
      ],
      "stateMutability": "nonpayable",
      "type": "function"
    },
    {
      "inputs": [],
      "name": "name",
      "outputs": [
        {
          "internalType": "string",
          "name": "",
          "type": "string"
        }
      ],
      "stateMutability": "view",
      "type": "function"
    },
    {
      "inputs": [],
      "name": "owner",
      "outputs": [
        {
          "internalType": "address",
          "name": "",
          "type": "address"
        }
      ],
      "stateMutability": "view",
      "type": "function"
    },
    {
      "inputs": [
        {
          "internalType": "uint256",
          "name": "tokenId",
          "type": "uint256"
        }
      ],
      "name": "ownerOf",
      "outputs": [
        {
          "internalType": "address",
          "name": "",
          "type": "address"
        }
      ],
      "stateMutability": "view",
      "type": "function"
    },
    {
      "inputs": [],
      "name": "pause",
      "outputs": [],
      "stateMutability": "nonpayable",
      "type": "function"
    },
    {
      "inputs": [],
      "name": "paused",
      "outputs": [
        {
          "internalType": "bool",
          "name": "",
          "type": "bool"
        }
      ],
      "stateMutability": "view",
      "type": "function"
    },
    {
      "inputs": [],
      "name": "renounceOwnership",
      "outputs": [],
      "stateMutability": "nonpayable",
      "type": "function"
    },
    {
      "inputs": [
        {
          "internalType": "uint256",
          "name": "_tokenId",
          "type": "uint256"
        },
        {
          "internalType": "uint256",
          "name": "_salePrice",
          "type": "uint256"
        }
      ],
      "name": "royaltyInfo",
      "outputs": [
        {
          "internalType": "address",
          "name": "",
          "type": "address"
        },
        {
          "internalType": "uint256",
          "name": "",
          "type": "uint256"
        }
      ],
      "stateMutability": "view",
      "type": "function"
    },
    {
      "inputs": [
        {
          "internalType": "address",
          "name": "from",
          "type": "address"
        },
        {
          "internalType": "address",
          "name": "to",
          "type": "address"
        },
        {
          "internalType": "uint256",
          "name": "tokenId",
          "type": "uint256"
        }
      ],
      "name": "safeTransferFrom",
      "outputs": [],
      "stateMutability": "nonpayable",
      "type": "function"
    },
    {
      "inputs": [
        {
          "internalType": "address",
          "name": "from",
          "type": "address"
        },
        {
          "internalType": "address",
          "name": "to",
          "type": "address"
        },
        {
          "internalType": "uint256",
          "name": "tokenId",
          "type": "uint256"
        },
        {
          "internalType": "bytes",
          "name": "data",
          "type": "bytes"
        }
      ],
      "name": "safeTransferFrom",
      "outputs": [],
      "stateMutability": "nonpayable",
      "type": "function"
    },
    {
      "inputs": [
        {
          "internalType": "address",
          "name": "operator",
          "type": "address"
        },
        {
          "internalType": "bool",
          "name": "approved",
          "type": "bool"
        }
      ],
      "name": "setApprovalForAll",
      "outputs": [],
      "stateMutability": "nonpayable",
      "type": "function"
    },
    {
      "inputs": [
        {
          "internalType": "bytes4",
          "name": "interfaceId",
          "type": "bytes4"
        }
      ],
      "name": "supportsInterface",
      "outputs": [
        {
          "internalType": "bool",
          "name": "",
          "type": "bool"
        }
      ],
      "stateMutability": "view",
      "type": "function"
    },
    {
      "inputs": [],
      "name": "symbol",
      "outputs": [
        {
          "internalType": "string",
          "name": "",
          "type": "string"
        }
      ],
      "stateMutability": "view",
      "type": "function"
    },
    {
      "inputs": [
        {
          "internalType": "uint256",
          "name": "index",
          "type": "uint256"
        }
      ],
      "name": "tokenByIndex",
      "outputs": [
        {
          "internalType": "uint256",
          "name": "",
          "type": "uint256"
        }
      ],
      "stateMutability": "view",
      "type": "function"
    },
    {
      "inputs": [
        {
          "internalType": "address",
          "name": "owner",
          "type": "address"
        },
        {
          "internalType": "uint256",
          "name": "index",
          "type": "uint256"
        }
      ],
      "name": "tokenOfOwnerByIndex",
      "outputs": [
        {
          "internalType": "uint256",
          "name": "",
          "type": "uint256"
        }
      ],
      "stateMutability": "view",
      "type": "function"
    },
    {
      "inputs": [
        {
          "internalType": "uint256",
          "name": "tokenId",
          "type": "uint256"
        }
      ],
      "name": "tokenURI",
      "outputs": [
        {
          "internalType": "string",
          "name": "",
          "type": "string"
        }
      ],
      "stateMutability": "view",
      "type": "function"
    },
    {
      "inputs": [],
      "name": "totalSupply",
      "outputs": [
        {
          "internalType": "uint256",
          "name": "",
          "type": "uint256"
        }
      ],
      "stateMutability": "view",
      "type": "function"
    },
    {
      "inputs": [
        {
          "internalType": "address",
          "name": "from",
          "type": "address"
        },
        {
          "internalType": "address",
          "name": "to",
          "type": "address"
        },
        {
          "internalType": "uint256",
          "name": "tokenId",
          "type": "uint256"
        }
      ],
      "name": "transferFrom",
      "outputs": [],
      "stateMutability": "nonpayable",
      "type": "function"
    },
    {
      "inputs": [
        {
          "internalType": "address",
          "name": "newOwner",
          "type": "address"
        }
      ],
      "name": "transferOwnership",
      "outputs": [],
      "stateMutability": "nonpayable",
      "type": "function"
    },
    {
      "inputs": [],
      "name": "unpause",
      "outputs": [],
      "stateMutability": "nonpayable",
      "type": "function"
    }
  ],
  "bytecode": "0x60806040523480156200001157600080fd5b5060408051808201825260088152675765617261626c6560c01b6020808301918252835180850190945260038452624f4c4160e81b9084015281519192916200005d91600291620001f4565b50805162000073906003906020840190620001f4565b505050620000906200008a620000d860201b60201c565b620000dc565b600d805460ff60a01b191690556000620000a96200012e565b9050620000d1336014620000bf8460016200034e565b620000cb91906200031b565b62000134565b50620003c7565b3390565b600d80546001600160a01b038381166001600160a01b0319831681179093556040519116919082907f8be0079c531659141344cd1fd0a4f28419497f9722a3daafe3b4186f6b6457e090600090a35050565b61271090565b6200013e6200012e565b6001600160601b0316816001600160601b031611156200017b5760405162461bcd60e51b815260040162000172906200029a565b60405180910390fd5b6001600160a01b038216620001a45760405162461bcd60e51b81526004016200017290620002e4565b604080518082019091526001600160a01b039283168082526001600160601b03929092166020909101819052600080546001600160a01b031916909217909216600160a01b909202919091179055565b82805462000202906200038a565b90600052602060002090601f01602090048101928262000226576000855562000271565b82601f106200024157805160ff191683800117855562000271565b8280016001018555821562000271579182015b828111156200027157825182559160200191906001019062000254565b506200027f92915062000283565b5090565b5b808211156200027f576000815560010162000284565b6020808252602a908201527f455243323938313a20726f79616c7479206665652077696c6c206578636565646040820152692073616c65507269636560b01b606082015260800190565b60208082526019908201527f455243323938313a20696e76616c696420726563656976657200000000000000604082015260600190565b60006001600160601b03838116806200034257634e487b7160e01b83526012600452602483fd5b92169190910492915050565b60006001600160601b03828116848216811515828404821116156200038157634e487b7160e01b84526011600452602484fd5b02949350505050565b6002810460018216806200039f57607f821691505b60208210811415620003c157634e487b7160e01b600052602260045260246000fd5b50919050565b61215980620003d76000396000f3fe608060405234801561001057600080fd5b50600436106101735760003560e01c80636352211e116100de578063a22cb46511610097578063c87b56dd11610071578063c87b56dd146102fc578063e985e9c51461030f578063eacabe1414610322578063f2fde38b1461033557610173565b8063a22cb465146102c3578063b88d4fde146102d6578063c40412b5146102e957610173565b80636352211e1461027d57806370a0823114610290578063715018a6146102a35780638456cb59146102ab5780638da5cb5b146102b357806395d89b41146102bb57610173565b80632a55205a116101305780632a55205a146102135780632f745c59146102345780633f4ba83a1461024757806342842e0e1461024f5780634f6ccce7146102625780635c975abb1461027557610173565b806301ffc9a71461017857806306fdde03146101a1578063081812fc146101b6578063095ea7b3146101d657806318160ddd146101eb57806323b872dd14610200575b600080fd5b61018b6101863660046119d4565b610348565b6040516101989190611b0a565b60405180910390f35b6101a961035b565b6040516101989190611b15565b6101c96101c4366004611a0c565b6103ed565b6040516101989190611aa0565b6101e96101e43660046119ab565b610414565b005b6101f36104b5565b6040516101989190611fca565b6101e961020e36600461185e565b6104c4565b610226610221366004611a24565b610504565b604051610198929190611af1565b6101f36102423660046119ab565b6105bd565b6101e96105d0565b6101e961025d36600461185e565b6105e2565b6101f3610270366004611a0c565b61062c565b61018b610637565b6101c961028b366004611a0c565b610647565b6101f361029e366004611812565b61067c565b6101e96106c0565b6101e96106d2565b6101c96106e2565b6101a96106f1565b6101e96102d1366004611912565b610700565b6101e96102e4366004611899565b610716565b6101e96102f7366004611a0c565b61075d565b6101a961030a366004611a0c565b610771565b61018b61031d36600461182c565b61077c565b6101f361033036600461194c565b6107aa565b6101e9610343366004611812565b6107e8565b60006103538261081f565b90505b919050565b60606002805461036a90612061565b80601f016020809104026020016040519081016040528092919081815260200182805461039690612061565b80156103e35780601f106103b8576101008083540402835291602001916103e3565b820191906000526020600020905b8154815290600101906020018083116103c657829003601f168201915b5050505050905090565b60006103f882610844565b506000908152600660205260409020546001600160a01b031690565b600061041f82610647565b9050806001600160a01b0316836001600160a01b0316141561045c5760405162461bcd60e51b815260040161045390611eef565b60405180910390fd5b806001600160a01b031661046e610869565b6001600160a01b0316148061048a575061048a8161031d610869565b6104a65760405162461bcd60e51b815260040161045390611df1565b6104b0838361086d565b505050565b60006104bf6108db565b905090565b6104cc6108e1565b6104dd6104d7610869565b82610906565b6104f95760405162461bcd60e51b815260040161045390611f7c565b6104b0838383610965565b60008281526001602090815260408083208151808301909252546001600160a01b038116808352600160a01b9091046001600160601b03169282019290925282916105795750604080518082019091526000546001600160a01b0381168252600160a01b90046001600160601b031660208201525b6000610583610a98565b6001600160601b031682602001516001600160601b0316866105a59190611fff565b6105af9190611feb565b915196919550909350505050565b60006105c98383610a9e565b9392505050565b6105d8610af0565b6105e0610b2f565b565b6105ea6108e1565b6105f56104d7610869565b6106115760405162461bcd60e51b815260040161045390611f7c565b6104b083838360405180602001604052806000815250610b84565b600061035382610bb7565b600d54600160a01b900460ff1690565b6000818152600460205260408120546001600160a01b0316806103535760405162461bcd60e51b815260040161045390611eb8565b60006001600160a01b0382166106a45760405162461bcd60e51b815260040161045390611d5a565b506001600160a01b031660009081526005602052604090205490565b6106c8610af0565b6105e06000610c12565b6106da610af0565b6105e0610c64565b600d546001600160a01b031690565b60606003805461036a90612061565b61071261070b610869565b8383610ca8565b5050565b61071e6108e1565b61072f610729610869565b83610906565b61074b5760405162461bcd60e51b815260040161045390611f7c565b61075784848484610b84565b50505050565b610765610af0565b61076e81610d4b565b50565b606061035382610d54565b6001600160a01b03918216600090815260076020908152604080832093909416825291909152205460ff1690565b60006107b4610af0565b6107bc6108e1565b6107c6600e610e51565b60006107d2600e610e5a565b90506107de8482610e5e565b6105c98184610f45565b6107f0610af0565b6001600160a01b0381166108165760405162461bcd60e51b815260040161045390611bf3565b61076e81610c12565b60006001600160e01b0319821663780e9d6360e01b1480610353575061035382610f89565b61084d81610f94565b61076e5760405162461bcd60e51b815260040161045390611eb8565b3390565b600081815260066020526040902080546001600160a01b0319166001600160a01b03841690811790915581906108a282610647565b6001600160a01b03167f8c5be1e5ebec7d5bd14f71427d1e84f3dd0314c0f7b2291e5b200ac8c7c3b92560405160405180910390a45050565b600b5490565b6108e9610637565b156105e05760405162461bcd60e51b815260040161045390611d30565b60008061091283610647565b9050806001600160a01b0316846001600160a01b031614806109395750610939818561077c565b8061095d5750836001600160a01b0316610952846103ed565b6001600160a01b0316145b949350505050565b826001600160a01b031661097882610647565b6001600160a01b03161461099e5760405162461bcd60e51b815260040161045390611c39565b6001600160a01b0382166109c45760405162461bcd60e51b815260040161045390611cb5565b6109cf838383610fb1565b6109da60008261086d565b6001600160a01b0383166000908152600560205260408120805460019290610a0390849061201e565b90915550506001600160a01b0382166000908152600560205260408120805460019290610a31908490611fd3565b909155505060008181526004602052604080822080546001600160a01b0319166001600160a01b0386811691821790925591518493918716917fddf252ad1be2c89b69c2b068fc378daa952ba7f163c4a11628f55a4df523b3ef91a46104b08383836104b0565b61271090565b6000610aa98361067c565b8210610ac75760405162461bcd60e51b815260040161045390611b56565b506001600160a01b03919091166000908152600960209081526040808320938352929052205490565b610af8610869565b6001600160a01b0316610b096106e2565b6001600160a01b0316146105e05760405162461bcd60e51b815260040161045390611e83565b610b37610fbc565b600d805460ff60a01b191690557f5db9ee0a495bf2e6ff9c91a7834c1ba4fdd244a5e8aa4e537bd38aeae4b073aa610b6d610869565b604051610b7a9190611aa0565b60405180910390a1565b610b8f848484610965565b610b9b84848484610fe0565b6107575760405162461bcd60e51b815260040161045390611ba1565b6000610bc16108db565b8210610bdf5760405162461bcd60e51b815260040161045390611f30565b600b8281548110610c0057634e487b7160e01b600052603260045260246000fd5b90600052602060002001549050919050565b600d80546001600160a01b038381166001600160a01b0319831681179093556040519116919082907f8be0079c531659141344cd1fd0a4f28419497f9722a3daafe3b4186f6b6457e090600090a35050565b610c6c6108e1565b600d805460ff60a01b1916600160a01b1790557f62e78cea01bee320cd4e420270b5ea74000d11b0c9f74754ebdbfc544b05a258610b6d610869565b816001600160a01b0316836001600160a01b03161415610cda5760405162461bcd60e51b815260040161045390611cf9565b6001600160a01b0383811660008181526007602090815260408083209487168084529490915290819020805460ff1916851515179055517f17307eab39ab6107e8899845ad3d59bd9653f200f220920489ca2b5937696c3190610d3e908590611b0a565b60405180910390a3505050565b61076e816110fb565b6060610d5f82610844565b60008281526008602052604081208054610d7890612061565b80601f0160208091040260200160405190810160405280929190818152602001828054610da490612061565b8015610df15780601f10610dc657610100808354040283529160200191610df1565b820191906000526020600020905b815481529060010190602001808311610dd457829003601f168201915b505050505090506000610e0261113b565b9050805160001415610e1657509050610356565b815115610e48578082604051602001610e30929190611a71565b60405160208183030381529060405292505050610356565b61095d8461114d565b80546001019055565b5490565b6001600160a01b038216610e845760405162461bcd60e51b815260040161045390611e4e565b610e8d81610f94565b15610eaa5760405162461bcd60e51b815260040161045390611c7e565b610eb660008383610fb1565b6001600160a01b0382166000908152600560205260408120805460019290610edf908490611fd3565b909155505060008181526004602052604080822080546001600160a01b0319166001600160a01b03861690811790915590518392907fddf252ad1be2c89b69c2b068fc378daa952ba7f163c4a11628f55a4df523b3ef908290a4610712600083836104b0565b610f4e82610f94565b610f6a5760405162461bcd60e51b815260040161045390611da3565b600082815260086020908152604090912082516104b0928401906116b4565b6000610353826111b3565b6000908152600460205260409020546001600160a01b0316151590565b6104b08383836111f3565b610fc4610637565b6105e05760405162461bcd60e51b815260040161045390611b28565b6000610ff4846001600160a01b031661127c565b156110f057836001600160a01b031663150b7a02611010610869565b8786866040518563ffffffff1660e01b81526004016110329493929190611ab4565b602060405180830381600087803b15801561104c57600080fd5b505af192505050801561107c575060408051601f3d908101601f19168201909252611079918101906119f0565b60015b6110d6573d8080156110aa576040519150601f19603f3d011682016040523d82523d6000602084013e6110af565b606091505b5080516110ce5760405162461bcd60e51b815260040161045390611ba1565b805181602001fd5b6001600160e01b031916630a85bd0160e11b14905061095d565b506001949350505050565b6111048161128b565b6000818152600860205260409020805461111d90612061565b15905061076e57600081815260086020526040812061076e91611738565b60408051602081019091526000815290565b606061115882610844565b600061116261113b565b9050600081511161118257604051806020016040528060008152506105c9565b8061118c8461129d565b60405160200161119d929190611a71565b6040516020818303038152906040529392505050565b60006001600160e01b031982166380ac58cd60e01b14806111e457506001600160e01b03198216635b5e139f60e01b145b806103535750610353826113b8565b6111fe8383836104b0565b6001600160a01b03831661121a57611215816113dd565b61123d565b816001600160a01b0316836001600160a01b03161461123d5761123d8382611421565b6001600160a01b03821661125957611254816114be565b6104b0565b826001600160a01b0316826001600160a01b0316146104b0576104b08282611597565b6001600160a01b03163b151590565b611294816115db565b61076e8161168a565b6060816112c257506040805180820190915260018152600360fc1b6020820152610356565b8160005b81156112ec57806112d68161209c565b91506112e59050600a83611feb565b91506112c6565b60008167ffffffffffffffff81111561131557634e487b7160e01b600052604160045260246000fd5b6040519080825280601f01601f19166020018201604052801561133f576020820181803683370190505b5090505b841561095d5761135460018361201e565b9150611361600a866120b7565b61136c906030611fd3565b60f81b81838151811061138f57634e487b7160e01b600052603260045260246000fd5b60200101906001600160f81b031916908160001a9053506113b1600a86611feb565b9450611343565b60006001600160e01b0319821663152a902d60e11b148061035357506103538261169b565b600b80546000838152600c60205260408120829055600182018355919091527f0175b7a638427703f0dbe7bb9bbf987a2551717b34e79f33b5b1008d1fa01db90155565b6000600161142e8461067c565b611438919061201e565b6000838152600a602052604090205490915080821461148b576001600160a01b03841660009081526009602090815260408083208584528252808320548484528184208190558352600a90915290208190555b506000918252600a602090815260408084208490556001600160a01b039094168352600981528383209183525290812055565b600b546000906114d09060019061201e565b6000838152600c6020526040812054600b805493945090928490811061150657634e487b7160e01b600052603260045260246000fd5b9060005260206000200154905080600b838154811061153557634e487b7160e01b600052603260045260246000fd5b6000918252602080832090910192909255828152600c9091526040808220849055858252812055600b80548061157b57634e487b7160e01b600052603160045260246000fd5b6001900381819060005260206000200160009055905550505050565b60006115a28361067c565b6001600160a01b0390931660009081526009602090815260408083208684528252808320859055938252600a9052919091209190915550565b60006115e682610647565b90506115f481600084610fb1565b6115ff60008361086d565b6001600160a01b038116600090815260056020526040812080546001929061162890849061201e565b909155505060008281526004602052604080822080546001600160a01b0319169055518391906001600160a01b038416907fddf252ad1be2c89b69c2b068fc378daa952ba7f163c4a11628f55a4df523b3ef908390a4610712816000846104b0565b600090815260016020526040812055565b6001600160e01b031981166301ffc9a760e01b14919050565b8280546116c090612061565b90600052602060002090601f0160209004810192826116e25760008555611728565b82601f106116fb57805160ff1916838001178555611728565b82800160010185558215611728579182015b8281111561172857825182559160200191906001019061170d565b50611734929150611770565b5090565b50805461174490612061565b6000825580601f10611756575061076e565b601f01602090049060005260206000209081019061076e91905b5b808211156117345760008155600101611771565b600067ffffffffffffffff808411156117a0576117a06120f7565b604051601f8501601f19908116603f011681019082821181831017156117c8576117c86120f7565b816040528093508581528686860111156117e157600080fd5b858560208301376000602087830101525050509392505050565b80356001600160a01b038116811461035657600080fd5b600060208284031215611823578081fd5b6105c9826117fb565b6000806040838503121561183e578081fd5b611847836117fb565b9150611855602084016117fb565b90509250929050565b600080600060608486031215611872578081fd5b61187b846117fb565b9250611889602085016117fb565b9150604084013590509250925092565b600080600080608085870312156118ae578081fd5b6118b7856117fb565b93506118c5602086016117fb565b925060408501359150606085013567ffffffffffffffff8111156118e7578182fd5b8501601f810187136118f7578182fd5b61190687823560208401611785565b91505092959194509250565b60008060408385031215611924578182fd5b61192d836117fb565b915060208301358015158114611941578182fd5b809150509250929050565b6000806040838503121561195e578182fd5b611967836117fb565b9150602083013567ffffffffffffffff811115611982578182fd5b8301601f81018513611992578182fd5b6119a185823560208401611785565b9150509250929050565b600080604083850312156119bd578182fd5b6119c6836117fb565b946020939093013593505050565b6000602082840312156119e5578081fd5b81356105c98161210d565b600060208284031215611a01578081fd5b81516105c98161210d565b600060208284031215611a1d578081fd5b5035919050565b60008060408385031215611a36578182fd5b50508035926020909101359150565b60008151808452611a5d816020860160208601612035565b601f01601f19169290920160200192915050565b60008351611a83818460208801612035565b835190830190611a97818360208801612035565b01949350505050565b6001600160a01b0391909116815260200190565b6001600160a01b0385811682528416602082015260408101839052608060608201819052600090611ae790830184611a45565b9695505050505050565b6001600160a01b03929092168252602082015260400190565b901515815260200190565b6000602082526105c96020830184611a45565b60208082526014908201527314185d5cd8589b194e881b9bdd081c185d5cd95960621b604082015260600190565b6020808252602b908201527f455243373231456e756d657261626c653a206f776e657220696e646578206f7560408201526a74206f6620626f756e647360a81b606082015260800190565b60208082526032908201527f4552433732313a207472616e7366657220746f206e6f6e20455243373231526560408201527131b2b4bb32b91034b6b83632b6b2b73a32b960711b606082015260800190565b60208082526026908201527f4f776e61626c653a206e6577206f776e657220697320746865207a65726f206160408201526564647265737360d01b606082015260800190565b60208082526025908201527f4552433732313a207472616e736665722066726f6d20696e636f72726563742060408201526437bbb732b960d91b606082015260800190565b6020808252601c908201527f4552433732313a20746f6b656e20616c7265616479206d696e74656400000000604082015260600190565b60208082526024908201527f4552433732313a207472616e7366657220746f20746865207a65726f206164646040820152637265737360e01b606082015260800190565b60208082526019908201527f4552433732313a20617070726f766520746f2063616c6c657200000000000000604082015260600190565b60208082526010908201526f14185d5cd8589b194e881c185d5cd95960821b604082015260600190565b60208082526029908201527f4552433732313a2061646472657373207a65726f206973206e6f7420612076616040820152683634b21037bbb732b960b91b606082015260800190565b6020808252602e908201527f45524337323155524953746f726167653a2055524920736574206f66206e6f6e60408201526d32bc34b9ba32b73a103a37b5b2b760911b606082015260800190565b6020808252603e908201527f4552433732313a20617070726f76652063616c6c6572206973206e6f7420746f60408201527f6b656e206f776e6572206e6f7220617070726f76656420666f7220616c6c0000606082015260800190565b6020808252818101527f4552433732313a206d696e7420746f20746865207a65726f2061646472657373604082015260600190565b6020808252818101527f4f776e61626c653a2063616c6c6572206973206e6f7420746865206f776e6572604082015260600190565b60208082526018908201527f4552433732313a20696e76616c696420746f6b656e2049440000000000000000604082015260600190565b60208082526021908201527f4552433732313a20617070726f76616c20746f2063757272656e74206f776e656040820152603960f91b606082015260800190565b6020808252602c908201527f455243373231456e756d657261626c653a20676c6f62616c20696e646578206f60408201526b7574206f6620626f756e647360a01b606082015260800190565b6020808252602e908201527f4552433732313a2063616c6c6572206973206e6f7420746f6b656e206f776e6560408201526d1c881b9bdc88185c1c1c9bdd995960921b606082015260800190565b90815260200190565b60008219821115611fe657611fe66120cb565b500190565b600082611ffa57611ffa6120e1565b500490565b6000816000190483118215151615612019576120196120cb565b500290565b600082821015612030576120306120cb565b500390565b60005b83811015612050578181015183820152602001612038565b838111156107575750506000910152565b60028104600182168061207557607f821691505b6020821081141561209657634e487b7160e01b600052602260045260246000fd5b50919050565b60006000198214156120b0576120b06120cb565b5060010190565b6000826120c6576120c66120e1565b500690565b634e487b7160e01b600052601160045260246000fd5b634e487b7160e01b600052601260045260246000fd5b634e487b7160e01b600052604160045260246000fd5b6001600160e01b03198116811461076e57600080fdfea2646970667358221220268c912e7fccdea7037482bfba0e2cbb50b02e525234d117d4434305bbbf86f264736f6c63430008010033",
  "linkReferences": {},
  "deployedLinkReferences": {}
}