{
  "_format": "hh-sol-artifact-1",
  "contractName": "Wearable",
  "sourceName": "contracts/Wearable.sol",
  "abi": [
    {
      "inputs": [],
      "stateMutability": "nonpayable",
      "type": "constructor"
    },
    {
      "anonymous": false,
      "inputs": [
        {
          "indexed": true,
          "internalType": "address",
          "name": "owner",
          "type": "address"
        },
        {
          "indexed": true,
          "internalType": "address",
          "name": "approved",
          "type": "address"
        },
        {
          "indexed": true,
          "internalType": "uint256",
          "name": "tokenId",
          "type": "uint256"
        }
      ],
      "name": "Approval",
      "type": "event"
    },
    {
      "anonymous": false,
      "inputs": [
        {
          "indexed": true,
          "internalType": "address",
          "name": "owner",
          "type": "address"
        },
        {
          "indexed": true,
          "internalType": "address",
          "name": "operator",
          "type": "address"
        },
        {
          "indexed": false,
          "internalType": "bool",
          "name": "approved",
          "type": "bool"
        }
      ],
      "name": "ApprovalForAll",
      "type": "event"
    },
    {
      "anonymous": false,
      "inputs": [
        {
          "indexed": true,
          "internalType": "address",
          "name": "previousOwner",
          "type": "address"
        },
        {
          "indexed": true,
          "internalType": "address",
          "name": "newOwner",
          "type": "address"
        }
      ],
      "name": "OwnershipTransferred",
      "type": "event"
    },
    {
      "anonymous": false,
      "inputs": [
        {
          "indexed": false,
          "internalType": "address",
          "name": "account",
          "type": "address"
        }
      ],
      "name": "Paused",
      "type": "event"
    },
    {
      "anonymous": false,
      "inputs": [
        {
          "indexed": true,
          "internalType": "address",
          "name": "from",
          "type": "address"
        },
        {
          "indexed": true,
          "internalType": "address",
          "name": "to",
          "type": "address"
        },
        {
          "indexed": true,
          "internalType": "uint256",
          "name": "tokenId",
          "type": "uint256"
        }
      ],
      "name": "Transfer",
      "type": "event"
    },
    {
      "anonymous": false,
      "inputs": [
        {
          "indexed": false,
          "internalType": "address",
          "name": "account",
          "type": "address"
        }
      ],
      "name": "Unpaused",
      "type": "event"
    },
    {
      "inputs": [
        {
          "internalType": "address",
          "name": "to",
          "type": "address"
        },
        {
          "internalType": "uint256",
          "name": "tokenId",
          "type": "uint256"
        }
      ],
      "name": "approve",
      "outputs": [],
      "stateMutability": "nonpayable",
      "type": "function"
    },
    {
      "inputs": [
        {
          "internalType": "address",
          "name": "owner",
          "type": "address"
        }
      ],
      "name": "balanceOf",
      "outputs": [
        {
          "internalType": "uint256",
          "name": "",
          "type": "uint256"
        }
      ],
      "stateMutability": "view",
      "type": "function"
    },
    {
      "inputs": [
        {
          "internalType": "uint256",
          "name": "tokenId",
          "type": "uint256"
        }
      ],
      "name": "destroyNFT",
      "outputs": [],
      "stateMutability": "nonpayable",
      "type": "function"
    },
    {
      "inputs": [
        {
          "internalType": "uint256",
          "name": "tokenId",
          "type": "uint256"
        }
      ],
      "name": "getApproved",
      "outputs": [
        {
          "internalType": "address",
          "name": "",
          "type": "address"
        }
      ],
      "stateMutability": "view",
      "type": "function"
    },
    {
      "inputs": [
        {
          "internalType": "address",
          "name": "owner",
          "type": "address"
        },
        {
          "internalType": "address",
          "name": "operator",
          "type": "address"
        }
      ],
      "name": "isApprovedForAll",
      "outputs": [
        {
          "internalType": "bool",
          "name": "",
          "type": "bool"
        }
      ],
      "stateMutability": "view",
      "type": "function"
    },
    {
      "inputs": [
        {
          "internalType": "address",
          "name": "recipient",
          "type": "address"
        },
        {
          "internalType": "string",
          "name": "tokenURI",
          "type": "string"
        }
      ],
      "name": "mintNFT",
      "outputs": [
        {
          "internalType": "uint256",
          "name": "",
          "type": "uint256"
        }
      ],
      "stateMutability": "nonpayable",
      "type": "function"
    },
    {
      "inputs": [],
      "name": "name",
      "outputs": [
        {
          "internalType": "string",
          "name": "",
          "type": "string"
        }
      ],
      "stateMutability": "view",
      "type": "function"
    },
    {
      "inputs": [],
      "name": "owner",
      "outputs": [
        {
          "internalType": "address",
          "name": "",
          "type": "address"
        }
      ],
      "stateMutability": "view",
      "type": "function"
    },
    {
      "inputs": [
        {
          "internalType": "uint256",
          "name": "tokenId",
          "type": "uint256"
        }
      ],
      "name": "ownerOf",
      "outputs": [
        {
          "internalType": "address",
          "name": "",
          "type": "address"
        }
      ],
      "stateMutability": "view",
      "type": "function"
    },
    {
      "inputs": [],
      "name": "pause",
      "outputs": [],
      "stateMutability": "nonpayable",
      "type": "function"
    },
    {
      "inputs": [],
      "name": "paused",
      "outputs": [
        {
          "internalType": "bool",
          "name": "",
          "type": "bool"
        }
      ],
      "stateMutability": "view",
      "type": "function"
    },
    {
      "inputs": [],
      "name": "renounceOwnership",
      "outputs": [],
      "stateMutability": "nonpayable",
      "type": "function"
    },
    {
      "inputs": [
        {
          "internalType": "address",
          "name": "from",
          "type": "address"
        },
        {
          "internalType": "address",
          "name": "to",
          "type": "address"
        },
        {
          "internalType": "uint256",
          "name": "tokenId",
          "type": "uint256"
        }
      ],
      "name": "safeTransferFrom",
      "outputs": [],
      "stateMutability": "nonpayable",
      "type": "function"
    },
    {
      "inputs": [
        {
          "internalType": "address",
          "name": "from",
          "type": "address"
        },
        {
          "internalType": "address",
          "name": "to",
          "type": "address"
        },
        {
          "internalType": "uint256",
          "name": "tokenId",
          "type": "uint256"
        },
        {
          "internalType": "bytes",
          "name": "data",
          "type": "bytes"
        }
      ],
      "name": "safeTransferFrom",
      "outputs": [],
      "stateMutability": "nonpayable",
      "type": "function"
    },
    {
      "inputs": [
        {
          "internalType": "address",
          "name": "operator",
          "type": "address"
        },
        {
          "internalType": "bool",
          "name": "approved",
          "type": "bool"
        }
      ],
      "name": "setApprovalForAll",
      "outputs": [],
      "stateMutability": "nonpayable",
      "type": "function"
    },
    {
      "inputs": [
        {
          "internalType": "bytes4",
          "name": "interfaceId",
          "type": "bytes4"
        }
      ],
      "name": "supportsInterface",
      "outputs": [
        {
          "internalType": "bool",
          "name": "",
          "type": "bool"
        }
      ],
      "stateMutability": "view",
      "type": "function"
    },
    {
      "inputs": [],
      "name": "symbol",
      "outputs": [
        {
          "internalType": "string",
          "name": "",
          "type": "string"
        }
      ],
      "stateMutability": "view",
      "type": "function"
    },
    {
      "inputs": [
        {
          "internalType": "uint256",
          "name": "tokenId",
          "type": "uint256"
        }
      ],
      "name": "tokenURI",
      "outputs": [
        {
          "internalType": "string",
          "name": "",
          "type": "string"
        }
      ],
      "stateMutability": "view",
      "type": "function"
    },
    {
      "inputs": [
        {
          "internalType": "address",
          "name": "from",
          "type": "address"
        },
        {
          "internalType": "address",
          "name": "to",
          "type": "address"
        },
        {
          "internalType": "uint256",
          "name": "tokenId",
          "type": "uint256"
        }
      ],
      "name": "transferFrom",
      "outputs": [],
      "stateMutability": "nonpayable",
      "type": "function"
    },
    {
      "inputs": [
        {
          "internalType": "address",
          "name": "newOwner",
          "type": "address"
        }
      ],
      "name": "transferOwnership",
      "outputs": [],
      "stateMutability": "nonpayable",
      "type": "function"
    },
    {
      "inputs": [],
      "name": "unpause",
      "outputs": [],
      "stateMutability": "nonpayable",
      "type": "function"
    }
  ],
  "bytecode": "0x60806040523480156200001157600080fd5b5060408051808201825260088152675765617261626c6560c01b6020808301918252835180850190945260038452624f4c4160e81b9084015281519192916200005d91600091620000f9565b50805162000073906001906020840190620000f9565b505050620000906200008a620000a360201b60201c565b620000a7565b6007805460ff60a01b19169055620001dc565b3390565b600780546001600160a01b038381166001600160a01b0319831681179093556040519116919082907f8be0079c531659141344cd1fd0a4f28419497f9722a3daafe3b4186f6b6457e090600090a35050565b82805462000107906200019f565b90600052602060002090601f0160209004810192826200012b576000855562000176565b82601f106200014657805160ff191683800117855562000176565b8280016001018555821562000176579182015b828111156200017657825182559160200191906001019062000159565b506200018492915062000188565b5090565b5b8082111562000184576000815560010162000189565b600281046001821680620001b457607f821691505b60208210811415620001d657634e487b7160e01b600052602260045260246000fd5b50919050565b611ae180620001ec6000396000f3fe608060405234801561001057600080fd5b50600436106101375760003560e01c8063715018a6116100b8578063b88d4fde1161007c578063b88d4fde1461024b578063c40412b51461025e578063c87b56dd14610271578063e985e9c514610284578063eacabe1414610297578063f2fde38b146102aa57610137565b8063715018a6146102185780638456cb59146102205780638da5cb5b1461022857806395d89b4114610230578063a22cb4651461023857610137565b80633f4ba83a116100ff5780633f4ba83a146101c257806342842e0e146101ca5780635c975abb146101dd5780636352211e146101e557806370a08231146101f857610137565b806301ffc9a71461013c57806306fdde0314610165578063081812fc1461017a578063095ea7b31461019a57806323b872dd146101af575b600080fd5b61014f61014a36600461144c565b6102bd565b60405161015c9190611548565b60405180910390f35b61016d610305565b60405161015c9190611553565b61018d610188366004611484565b610397565b60405161015c91906114f7565b6101ad6101a8366004611423565b6103be565b005b6101ad6101bd3660046112d6565b61045f565b6101ad610497565b6101ad6101d83660046112d6565b6104a9565b61014f6104c4565b61018d6101f3366004611484565b6104d4565b61020b61020636600461128a565b610509565b60405161015c9190611971565b6101ad61054d565b6101ad61055f565b61018d61056f565b61016d61057e565b6101ad61024636600461138a565b61058d565b6101ad610259366004611311565b6105a3565b6101ad61026c366004611484565b6105e2565b61016d61027f366004611484565b6105f6565b61014f6102923660046112a4565b6106fb565b61020b6102a53660046113c4565b610729565b6101ad6102b836600461128a565b610766565b60006001600160e01b031982166380ac58cd60e01b14806102ee57506001600160e01b03198216635b5e139f60e01b145b806102fd57506102fd8261079d565b90505b919050565b606060008054610314906119e9565b80601f0160208091040260200160405190810160405280929190818152602001828054610340906119e9565b801561038d5780601f106103625761010080835404028352916020019161038d565b820191906000526020600020905b81548152906001019060200180831161037057829003601f168201915b5050505050905090565b60006103a2826107b6565b506000908152600460205260409020546001600160a01b031690565b60006103c9826104d4565b9050806001600160a01b0316836001600160a01b031614156104065760405162461bcd60e51b81526004016103fd906118e2565b60405180910390fd5b806001600160a01b03166104186107db565b6001600160a01b031614806104345750610434816102926107db565b6104505760405162461bcd60e51b81526004016103fd906117e4565b61045a83836107df565b505050565b61047061046a6107db565b8261084d565b61048c5760405162461bcd60e51b81526004016103fd90611923565b61045a8383836108ab565b61049f6109de565b6104a7610a1d565b565b61045a838383604051806020016040528060008152506105a3565b600754600160a01b900460ff1690565b6000818152600260205260408120546001600160a01b0316806102fd5760405162461bcd60e51b81526004016103fd906118ab565b60006001600160a01b0382166105315760405162461bcd60e51b81526004016103fd9061174d565b506001600160a01b031660009081526003602052604090205490565b6105556109de565b6104a76000610a72565b6105676109de565b6104a7610ac4565b6007546001600160a01b031690565b606060018054610314906119e9565b61059f6105986107db565b8383610b08565b5050565b6105b46105ae6107db565b8361084d565b6105d05760405162461bcd60e51b81526004016103fd90611923565b6105dc84848484610bab565b50505050565b6105ea6109de565b6105f381610bde565b50565b6060610601826107b6565b6000828152600660205260408120805461061a906119e9565b80601f0160208091040260200160405190810160405280929190818152602001828054610646906119e9565b80156106935780601f1061066857610100808354040283529160200191610693565b820191906000526020600020905b81548152906001019060200180831161067657829003601f168201915b5050505050905060006106a4610c1e565b90508051600014156106b857509050610300565b8151156106ea5780826040516020016106d29291906114c8565b60405160208183030381529060405292505050610300565b6106f384610c30565b949350505050565b6001600160a01b03918216600090815260056020908152604080832093909416825291909152205460ff1690565b60006107336109de565b61073d6008610c96565b60006107496008610c9f565b90506107558482610ca3565b61075f8184610d8a565b9392505050565b61076e6109de565b6001600160a01b0381166107945760405162461bcd60e51b81526004016103fd906115e6565b6105f381610a72565b6001600160e01b031981166301ffc9a760e01b14919050565b6107bf81610dce565b6105f35760405162461bcd60e51b81526004016103fd906118ab565b3390565b600081815260046020526040902080546001600160a01b0319166001600160a01b0384169081179091558190610814826104d4565b6001600160a01b03167f8c5be1e5ebec7d5bd14f71427d1e84f3dd0314c0f7b2291e5b200ac8c7c3b92560405160405180910390a45050565b600080610859836104d4565b9050806001600160a01b0316846001600160a01b03161480610880575061088081856106fb565b806106f35750836001600160a01b031661089984610397565b6001600160a01b031614949350505050565b826001600160a01b03166108be826104d4565b6001600160a01b0316146108e45760405162461bcd60e51b81526004016103fd9061162c565b6001600160a01b03821661090a5760405162461bcd60e51b81526004016103fd906116a8565b61091583838361045a565b6109206000826107df565b6001600160a01b03831660009081526003602052604081208054600192906109499084906119a6565b90915550506001600160a01b038216600090815260036020526040812080546001929061097790849061197a565b909155505060008181526002602052604080822080546001600160a01b0319166001600160a01b0386811691821790925591518493918716917fddf252ad1be2c89b69c2b068fc378daa952ba7f163c4a11628f55a4df523b3ef91a461045a83838361045a565b6109e66107db565b6001600160a01b03166109f761056f565b6001600160a01b0316146104a75760405162461bcd60e51b81526004016103fd90611876565b610a25610deb565b6007805460ff60a01b191690557f5db9ee0a495bf2e6ff9c91a7834c1ba4fdd244a5e8aa4e537bd38aeae4b073aa610a5b6107db565b604051610a6891906114f7565b60405180910390a1565b600780546001600160a01b038381166001600160a01b0319831681179093556040519116919082907f8be0079c531659141344cd1fd0a4f28419497f9722a3daafe3b4186f6b6457e090600090a35050565b610acc610e0f565b6007805460ff60a01b1916600160a01b1790557f62e78cea01bee320cd4e420270b5ea74000d11b0c9f74754ebdbfc544b05a258610a5b6107db565b816001600160a01b0316836001600160a01b03161415610b3a5760405162461bcd60e51b81526004016103fd906116ec565b6001600160a01b0383811660008181526005602090815260408083209487168084529490915290819020805460ff1916851515179055517f17307eab39ab6107e8899845ad3d59bd9653f200f220920489ca2b5937696c3190610b9e908590611548565b60405180910390a3505050565b610bb68484846108ab565b610bc284848484610e34565b6105dc5760405162461bcd60e51b81526004016103fd90611594565b610be781610f4f565b60008181526006602052604090208054610c00906119e9565b1590506105f35760008181526006602052604081206105f391611128565b60408051602081019091526000815290565b6060610c3b826107b6565b6000610c45610c1e565b90506000815111610c65576040518060200160405280600081525061075f565b80610c6f84610ffe565b604051602001610c809291906114c8565b6040516020818303038152906040529392505050565b80546001019055565b5490565b6001600160a01b038216610cc95760405162461bcd60e51b81526004016103fd90611841565b610cd281610dce565b15610cef5760405162461bcd60e51b81526004016103fd90611671565b610cfb6000838361045a565b6001600160a01b0382166000908152600360205260408120805460019290610d2490849061197a565b909155505060008181526002602052604080822080546001600160a01b0319166001600160a01b03861690811790915590518392907fddf252ad1be2c89b69c2b068fc378daa952ba7f163c4a11628f55a4df523b3ef908290a461059f6000838361045a565b610d9382610dce565b610daf5760405162461bcd60e51b81526004016103fd90611796565b6000828152600660209081526040909120825161045a92840190611164565b6000908152600260205260409020546001600160a01b0316151590565b610df36104c4565b6104a75760405162461bcd60e51b81526004016103fd90611566565b610e176104c4565b156104a75760405162461bcd60e51b81526004016103fd90611723565b6000610e48846001600160a01b0316611119565b15610f4457836001600160a01b031663150b7a02610e646107db565b8786866040518563ffffffff1660e01b8152600401610e86949392919061150b565b602060405180830381600087803b158015610ea057600080fd5b505af1925050508015610ed0575060408051601f3d908101601f19168201909252610ecd91810190611468565b60015b610f2a573d808015610efe576040519150601f19603f3d011682016040523d82523d6000602084013e610f03565b606091505b508051610f225760405162461bcd60e51b81526004016103fd90611594565b805181602001fd5b6001600160e01b031916630a85bd0160e11b1490506106f3565b506001949350505050565b6000610f5a826104d4565b9050610f688160008461045a565b610f736000836107df565b6001600160a01b0381166000908152600360205260408120805460019290610f9c9084906119a6565b909155505060008281526002602052604080822080546001600160a01b0319169055518391906001600160a01b038416907fddf252ad1be2c89b69c2b068fc378daa952ba7f163c4a11628f55a4df523b3ef908390a461059f8160008461045a565b60608161102357506040805180820190915260018152600360fc1b6020820152610300565b8160005b811561104d578061103781611a24565b91506110469050600a83611992565b9150611027565b60008167ffffffffffffffff81111561107657634e487b7160e01b600052604160045260246000fd5b6040519080825280601f01601f1916602001820160405280156110a0576020820181803683370190505b5090505b84156106f3576110b56001836119a6565b91506110c2600a86611a3f565b6110cd90603061197a565b60f81b8183815181106110f057634e487b7160e01b600052603260045260246000fd5b60200101906001600160f81b031916908160001a905350611112600a86611992565b94506110a4565b6001600160a01b03163b151590565b508054611134906119e9565b6000825580601f1061114657506105f3565b601f0160209004906000526020600020908101906105f391906111e8565b828054611170906119e9565b90600052602060002090601f01602090048101928261119257600085556111d8565b82601f106111ab57805160ff19168380011785556111d8565b828001600101855582156111d8579182015b828111156111d85782518255916020019190600101906111bd565b506111e49291506111e8565b5090565b5b808211156111e457600081556001016111e9565b600067ffffffffffffffff8084111561121857611218611a7f565b604051601f8501601f19908116603f0116810190828211818310171561124057611240611a7f565b8160405280935085815286868601111561125957600080fd5b858560208301376000602087830101525050509392505050565b80356001600160a01b038116811461030057600080fd5b60006020828403121561129b578081fd5b61075f82611273565b600080604083850312156112b6578081fd5b6112bf83611273565b91506112cd60208401611273565b90509250929050565b6000806000606084860312156112ea578081fd5b6112f384611273565b925061130160208501611273565b9150604084013590509250925092565b60008060008060808587031215611326578081fd5b61132f85611273565b935061133d60208601611273565b925060408501359150606085013567ffffffffffffffff81111561135f578182fd5b8501601f8101871361136f578182fd5b61137e878235602084016111fd565b91505092959194509250565b6000806040838503121561139c578182fd5b6113a583611273565b9150602083013580151581146113b9578182fd5b809150509250929050565b600080604083850312156113d6578182fd5b6113df83611273565b9150602083013567ffffffffffffffff8111156113fa578182fd5b8301601f8101851361140a578182fd5b611419858235602084016111fd565b9150509250929050565b60008060408385031215611435578182fd5b61143e83611273565b946020939093013593505050565b60006020828403121561145d578081fd5b813561075f81611a95565b600060208284031215611479578081fd5b815161075f81611a95565b600060208284031215611495578081fd5b5035919050565b600081518084526114b48160208601602086016119bd565b601f01601f19169290920160200192915050565b600083516114da8184602088016119bd565b8351908301906114ee8183602088016119bd565b01949350505050565b6001600160a01b0391909116815260200190565b6001600160a01b038581168252841660208201526040810183905260806060820181905260009061153e9083018461149c565b9695505050505050565b901515815260200190565b60006020825261075f602083018461149c565b60208082526014908201527314185d5cd8589b194e881b9bdd081c185d5cd95960621b604082015260600190565b60208082526032908201527f4552433732313a207472616e7366657220746f206e6f6e20455243373231526560408201527131b2b4bb32b91034b6b83632b6b2b73a32b960711b606082015260800190565b60208082526026908201527f4f776e61626c653a206e6577206f776e657220697320746865207a65726f206160408201526564647265737360d01b606082015260800190565b60208082526025908201527f4552433732313a207472616e736665722066726f6d20696e636f72726563742060408201526437bbb732b960d91b606082015260800190565b6020808252601c908201527f4552433732313a20746f6b656e20616c7265616479206d696e74656400000000604082015260600190565b60208082526024908201527f4552433732313a207472616e7366657220746f20746865207a65726f206164646040820152637265737360e01b606082015260800190565b60208082526019908201527f4552433732313a20617070726f766520746f2063616c6c657200000000000000604082015260600190565b60208082526010908201526f14185d5cd8589b194e881c185d5cd95960821b604082015260600190565b60208082526029908201527f4552433732313a2061646472657373207a65726f206973206e6f7420612076616040820152683634b21037bbb732b960b91b606082015260800190565b6020808252602e908201527f45524337323155524953746f726167653a2055524920736574206f66206e6f6e60408201526d32bc34b9ba32b73a103a37b5b2b760911b606082015260800190565b6020808252603e908201527f4552433732313a20617070726f76652063616c6c6572206973206e6f7420746f60408201527f6b656e206f776e6572206e6f7220617070726f76656420666f7220616c6c0000606082015260800190565b6020808252818101527f4552433732313a206d696e7420746f20746865207a65726f2061646472657373604082015260600190565b6020808252818101527f4f776e61626c653a2063616c6c6572206973206e6f7420746865206f776e6572604082015260600190565b60208082526018908201527f4552433732313a20696e76616c696420746f6b656e2049440000000000000000604082015260600190565b60208082526021908201527f4552433732313a20617070726f76616c20746f2063757272656e74206f776e656040820152603960f91b606082015260800190565b6020808252602e908201527f4552433732313a2063616c6c6572206973206e6f7420746f6b656e206f776e6560408201526d1c881b9bdc88185c1c1c9bdd995960921b606082015260800190565b90815260200190565b6000821982111561198d5761198d611a53565b500190565b6000826119a1576119a1611a69565b500490565b6000828210156119b8576119b8611a53565b500390565b60005b838110156119d85781810151838201526020016119c0565b838111156105dc5750506000910152565b6002810460018216806119fd57607f821691505b60208210811415611a1e57634e487b7160e01b600052602260045260246000fd5b50919050565b6000600019821415611a3857611a38611a53565b5060010190565b600082611a4e57611a4e611a69565b500690565b634e487b7160e01b600052601160045260246000fd5b634e487b7160e01b600052601260045260246000fd5b634e487b7160e01b600052604160045260246000fd5b6001600160e01b0319811681146105f357600080fdfea26469706673582212200ef48191206eba74e861ff025e617165bddf221f89b0ae4d48350dd5ee54dec564736f6c63430008010033",
  "linkReferences": {},
  "deployedLinkReferences": {}
}