{
  "_format": "hh-sol-artifact-1",
  "contractName": "Wearable",
  "sourceName": "contracts/Wearable.sol",
  "abi": [
    {
      "inputs": [],
      "stateMutability": "nonpayable",
      "type": "constructor"
    },
    {
      "anonymous": false,
      "inputs": [
        {
          "indexed": true,
          "internalType": "address",
          "name": "owner",
          "type": "address"
        },
        {
          "indexed": true,
          "internalType": "address",
          "name": "approved",
          "type": "address"
        },
        {
          "indexed": true,
          "internalType": "uint256",
          "name": "tokenId",
          "type": "uint256"
        }
      ],
      "name": "Approval",
      "type": "event"
    },
    {
      "anonymous": false,
      "inputs": [
        {
          "indexed": true,
          "internalType": "address",
          "name": "owner",
          "type": "address"
        },
        {
          "indexed": true,
          "internalType": "address",
          "name": "operator",
          "type": "address"
        },
        {
          "indexed": false,
          "internalType": "bool",
          "name": "approved",
          "type": "bool"
        }
      ],
      "name": "ApprovalForAll",
      "type": "event"
    },
    {
      "anonymous": false,
      "inputs": [
        {
          "indexed": true,
          "internalType": "address",
          "name": "previousOwner",
          "type": "address"
        },
        {
          "indexed": true,
          "internalType": "address",
          "name": "newOwner",
          "type": "address"
        }
      ],
      "name": "OwnershipTransferred",
      "type": "event"
    },
    {
      "anonymous": false,
      "inputs": [
        {
          "indexed": false,
          "internalType": "address",
          "name": "account",
          "type": "address"
        }
      ],
      "name": "Paused",
      "type": "event"
    },
    {
      "anonymous": false,
      "inputs": [
        {
          "indexed": true,
          "internalType": "address",
          "name": "from",
          "type": "address"
        },
        {
          "indexed": true,
          "internalType": "address",
          "name": "to",
          "type": "address"
        },
        {
          "indexed": true,
          "internalType": "uint256",
          "name": "tokenId",
          "type": "uint256"
        }
      ],
      "name": "Transfer",
      "type": "event"
    },
    {
      "anonymous": false,
      "inputs": [
        {
          "indexed": false,
          "internalType": "address",
          "name": "account",
          "type": "address"
        }
      ],
      "name": "Unpaused",
      "type": "event"
    },
    {
      "inputs": [
        {
          "internalType": "address",
          "name": "to",
          "type": "address"
        },
        {
          "internalType": "uint256",
          "name": "tokenId",
          "type": "uint256"
        }
      ],
      "name": "approve",
      "outputs": [],
      "stateMutability": "nonpayable",
      "type": "function"
    },
    {
      "inputs": [
        {
          "internalType": "address",
          "name": "owner",
          "type": "address"
        }
      ],
      "name": "balanceOf",
      "outputs": [
        {
          "internalType": "uint256",
          "name": "",
          "type": "uint256"
        }
      ],
      "stateMutability": "view",
      "type": "function"
    },
    {
      "inputs": [
        {
          "internalType": "uint256",
          "name": "tokenId",
          "type": "uint256"
        }
      ],
      "name": "destroyNFT",
      "outputs": [],
      "stateMutability": "nonpayable",
      "type": "function"
    },
    {
      "inputs": [
        {
          "internalType": "uint256",
          "name": "tokenId",
          "type": "uint256"
        }
      ],
      "name": "getApproved",
      "outputs": [
        {
          "internalType": "address",
          "name": "",
          "type": "address"
        }
      ],
      "stateMutability": "view",
      "type": "function"
    },
    {
      "inputs": [
        {
          "internalType": "address",
          "name": "owner",
          "type": "address"
        },
        {
          "internalType": "address",
          "name": "operator",
          "type": "address"
        }
      ],
      "name": "isApprovedForAll",
      "outputs": [
        {
          "internalType": "bool",
          "name": "",
          "type": "bool"
        }
      ],
      "stateMutability": "view",
      "type": "function"
    },
    {
      "inputs": [
        {
          "internalType": "address",
          "name": "recipient",
          "type": "address"
        },
        {
          "internalType": "string",
          "name": "tokenURI",
          "type": "string"
        }
      ],
      "name": "mintNFT",
      "outputs": [
        {
          "internalType": "uint256",
          "name": "",
          "type": "uint256"
        }
      ],
      "stateMutability": "nonpayable",
      "type": "function"
    },
    {
      "inputs": [],
      "name": "name",
      "outputs": [
        {
          "internalType": "string",
          "name": "",
          "type": "string"
        }
      ],
      "stateMutability": "view",
      "type": "function"
    },
    {
      "inputs": [],
      "name": "owner",
      "outputs": [
        {
          "internalType": "address",
          "name": "",
          "type": "address"
        }
      ],
      "stateMutability": "view",
      "type": "function"
    },
    {
      "inputs": [
        {
          "internalType": "uint256",
          "name": "tokenId",
          "type": "uint256"
        }
      ],
      "name": "ownerOf",
      "outputs": [
        {
          "internalType": "address",
          "name": "",
          "type": "address"
        }
      ],
      "stateMutability": "view",
      "type": "function"
    },
    {
      "inputs": [],
      "name": "pause",
      "outputs": [],
      "stateMutability": "nonpayable",
      "type": "function"
    },
    {
      "inputs": [],
      "name": "paused",
      "outputs": [
        {
          "internalType": "bool",
          "name": "",
          "type": "bool"
        }
      ],
      "stateMutability": "view",
      "type": "function"
    },
    {
      "inputs": [],
      "name": "renounceOwnership",
      "outputs": [],
      "stateMutability": "nonpayable",
      "type": "function"
    },
    {
      "inputs": [
        {
          "internalType": "address",
          "name": "from",
          "type": "address"
        },
        {
          "internalType": "address",
          "name": "to",
          "type": "address"
        },
        {
          "internalType": "uint256",
          "name": "tokenId",
          "type": "uint256"
        }
      ],
      "name": "safeTransferFrom",
      "outputs": [],
      "stateMutability": "nonpayable",
      "type": "function"
    },
    {
      "inputs": [
        {
          "internalType": "address",
          "name": "from",
          "type": "address"
        },
        {
          "internalType": "address",
          "name": "to",
          "type": "address"
        },
        {
          "internalType": "uint256",
          "name": "tokenId",
          "type": "uint256"
        },
        {
          "internalType": "bytes",
          "name": "data",
          "type": "bytes"
        }
      ],
      "name": "safeTransferFrom",
      "outputs": [],
      "stateMutability": "nonpayable",
      "type": "function"
    },
    {
      "inputs": [
        {
          "internalType": "address",
          "name": "operator",
          "type": "address"
        },
        {
          "internalType": "bool",
          "name": "approved",
          "type": "bool"
        }
      ],
      "name": "setApprovalForAll",
      "outputs": [],
      "stateMutability": "nonpayable",
      "type": "function"
    },
    {
      "inputs": [
        {
          "internalType": "bytes4",
          "name": "interfaceId",
          "type": "bytes4"
        }
      ],
      "name": "supportsInterface",
      "outputs": [
        {
          "internalType": "bool",
          "name": "",
          "type": "bool"
        }
      ],
      "stateMutability": "view",
      "type": "function"
    },
    {
      "inputs": [],
      "name": "symbol",
      "outputs": [
        {
          "internalType": "string",
          "name": "",
          "type": "string"
        }
      ],
      "stateMutability": "view",
      "type": "function"
    },
    {
      "inputs": [
        {
          "internalType": "uint256",
          "name": "tokenId",
          "type": "uint256"
        }
      ],
      "name": "tokenURI",
      "outputs": [
        {
          "internalType": "string",
          "name": "",
          "type": "string"
        }
      ],
      "stateMutability": "view",
      "type": "function"
    },
    {
      "inputs": [
        {
          "internalType": "address",
          "name": "from",
          "type": "address"
        },
        {
          "internalType": "address",
          "name": "to",
          "type": "address"
        },
        {
          "internalType": "uint256",
          "name": "tokenId",
          "type": "uint256"
        }
      ],
      "name": "transferFrom",
      "outputs": [],
      "stateMutability": "nonpayable",
      "type": "function"
    },
    {
      "inputs": [
        {
          "internalType": "address",
          "name": "from",
          "type": "address"
        },
        {
          "internalType": "address",
          "name": "to",
          "type": "address"
        },
        {
          "internalType": "uint256",
          "name": "tokenId",
          "type": "uint256"
        }
      ],
      "name": "transferNFT",
      "outputs": [],
      "stateMutability": "nonpayable",
      "type": "function"
    },
    {
      "inputs": [
        {
          "internalType": "address",
          "name": "newOwner",
          "type": "address"
        }
      ],
      "name": "transferOwnership",
      "outputs": [],
      "stateMutability": "nonpayable",
      "type": "function"
    },
    {
      "inputs": [],
      "name": "unpause",
      "outputs": [],
      "stateMutability": "nonpayable",
      "type": "function"
    }
  ],
  "bytecode": "0x60806040523480156200001157600080fd5b5060408051808201825260088152675765617261626c6560c01b6020808301918252835180850190945260038452624f4c4160e81b9084015281519192916200005d91600091620000f9565b50805162000073906001906020840190620000f9565b505050620000906200008a620000a360201b60201c565b620000a7565b6007805460ff60a01b19169055620001dc565b3390565b600780546001600160a01b038381166001600160a01b0319831681179093556040519116919082907f8be0079c531659141344cd1fd0a4f28419497f9722a3daafe3b4186f6b6457e090600090a35050565b82805462000107906200019f565b90600052602060002090601f0160209004810192826200012b576000855562000176565b82601f106200014657805160ff191683800117855562000176565b8280016001018555821562000176579182015b828111156200017657825182559160200191906001019062000159565b506200018492915062000188565b5090565b5b8082111562000184576000815560010162000189565b600281046001821680620001b457607f821691505b60208210811415620001d657634e487b7160e01b600052602260045260246000fd5b50919050565b611b2280620001ec6000396000f3fe608060405234801561001057600080fd5b50600436106101425760003560e01c8063715018a6116100b8578063b88d4fde1161007c578063b88d4fde14610269578063c40412b51461027c578063c87b56dd1461028f578063e985e9c5146102a2578063eacabe14146102b5578063f2fde38b146102c857610142565b8063715018a6146102365780638456cb591461023e5780638da5cb5b1461024657806395d89b411461024e578063a22cb4651461025657610142565b80633f4ba83a1161010a5780633f4ba83a146101cd57806342842e0e146101d55780635c975abb146101e85780636352211e146101f057806369e9cae11461020357806370a082311461021657610142565b806301ffc9a71461014757806306fdde0314610170578063081812fc14610185578063095ea7b3146101a557806323b872dd146101ba575b600080fd5b61015a61015536600461148d565b6102db565b6040516101679190611589565b60405180910390f35b610178610323565b6040516101679190611594565b6101986101933660046114c5565b6103b5565b6040516101679190611538565b6101b86101b3366004611464565b6103dc565b005b6101b86101c8366004611317565b61047d565b6101b86104b5565b6101b86101e3366004611317565b6104c7565b61015a6104e2565b6101986101fe3660046114c5565b6104f2565b6101b8610211366004611317565b610527565b6102296102243660046112cb565b61053a565b60405161016791906119b2565b6101b861057e565b6101b8610590565b6101986105a0565b6101786105af565b6101b86102643660046113cb565b6105be565b6101b8610277366004611352565b6105d4565b6101b861028a3660046114c5565b610613565b61017861029d3660046114c5565b61062f565b61015a6102b03660046112e5565b610734565b6102296102c3366004611405565b610762565b6101b86102d63660046112cb565b6107a7565b60006001600160e01b031982166380ac58cd60e01b148061030c57506001600160e01b03198216635b5e139f60e01b145b8061031b575061031b826107de565b90505b919050565b60606000805461033290611a2a565b80601f016020809104026020016040519081016040528092919081815260200182805461035e90611a2a565b80156103ab5780601f10610380576101008083540402835291602001916103ab565b820191906000526020600020905b81548152906001019060200180831161038e57829003601f168201915b5050505050905090565b60006103c0826107f7565b506000908152600460205260409020546001600160a01b031690565b60006103e7826104f2565b9050806001600160a01b0316836001600160a01b031614156104245760405162461bcd60e51b815260040161041b90611923565b60405180910390fd5b806001600160a01b031661043661081c565b6001600160a01b031614806104525750610452816102b061081c565b61046e5760405162461bcd60e51b815260040161041b90611825565b6104788383610820565b505050565b61048e61048861081c565b8261088e565b6104aa5760405162461bcd60e51b815260040161041b90611964565b6104788383836108ec565b6104bd610a1f565b6104c5610a5e565b565b610478838383604051806020016040528060008152506105d4565b600754600160a01b900460ff1690565b6000818152600260205260408120546001600160a01b03168061031b5760405162461bcd60e51b815260040161041b906118ec565b61052f610ab3565b61047883838361047d565b60006001600160a01b0382166105625760405162461bcd60e51b815260040161041b9061178e565b506001600160a01b031660009081526003602052604090205490565b610586610a1f565b6104c56000610ad8565b610598610a1f565b6104c5610b2a565b6007546001600160a01b031690565b60606001805461033290611a2a565b6105d06105c961081c565b8383610b6e565b5050565b6105e56105df61081c565b8361088e565b6106015760405162461bcd60e51b815260040161041b90611964565b61060d84848484610c11565b50505050565b61061b610a1f565b610623610ab3565b61062c81610c44565b50565b606061063a826107f7565b6000828152600660205260408120805461065390611a2a565b80601f016020809104026020016040519081016040528092919081815260200182805461067f90611a2a565b80156106cc5780601f106106a1576101008083540402835291602001916106cc565b820191906000526020600020905b8154815290600101906020018083116106af57829003601f168201915b5050505050905060006106dd610c84565b90508051600014156106f15750905061031e565b81511561072357808260405160200161070b929190611509565b6040516020818303038152906040529250505061031e565b61072c84610c96565b949350505050565b6001600160a01b03918216600090815260056020908152604080832093909416825291909152205460ff1690565b600061076c610a1f565b610774610ab3565b61077e6008610cfc565b600061078a6008610d05565b90506107968482610d09565b6107a08184610df0565b9392505050565b6107af610a1f565b6001600160a01b0381166107d55760405162461bcd60e51b815260040161041b90611627565b61062c81610ad8565b6001600160e01b031981166301ffc9a760e01b14919050565b61080081610e34565b61062c5760405162461bcd60e51b815260040161041b906118ec565b3390565b600081815260046020526040902080546001600160a01b0319166001600160a01b0384169081179091558190610855826104f2565b6001600160a01b03167f8c5be1e5ebec7d5bd14f71427d1e84f3dd0314c0f7b2291e5b200ac8c7c3b92560405160405180910390a45050565b60008061089a836104f2565b9050806001600160a01b0316846001600160a01b031614806108c157506108c18185610734565b8061072c5750836001600160a01b03166108da846103b5565b6001600160a01b031614949350505050565b826001600160a01b03166108ff826104f2565b6001600160a01b0316146109255760405162461bcd60e51b815260040161041b9061166d565b6001600160a01b03821661094b5760405162461bcd60e51b815260040161041b906116e9565b610956838383610478565b610961600082610820565b6001600160a01b038316600090815260036020526040812080546001929061098a9084906119e7565b90915550506001600160a01b03821660009081526003602052604081208054600192906109b89084906119bb565b909155505060008181526002602052604080822080546001600160a01b0319166001600160a01b0386811691821790925591518493918716917fddf252ad1be2c89b69c2b068fc378daa952ba7f163c4a11628f55a4df523b3ef91a4610478838383610478565b610a2761081c565b6001600160a01b0316610a386105a0565b6001600160a01b0316146104c55760405162461bcd60e51b815260040161041b906118b7565b610a66610e51565b6007805460ff60a01b191690557f5db9ee0a495bf2e6ff9c91a7834c1ba4fdd244a5e8aa4e537bd38aeae4b073aa610a9c61081c565b604051610aa99190611538565b60405180910390a1565b610abb6104e2565b156104c55760405162461bcd60e51b815260040161041b90611764565b600780546001600160a01b038381166001600160a01b0319831681179093556040519116919082907f8be0079c531659141344cd1fd0a4f28419497f9722a3daafe3b4186f6b6457e090600090a35050565b610b32610ab3565b6007805460ff60a01b1916600160a01b1790557f62e78cea01bee320cd4e420270b5ea74000d11b0c9f74754ebdbfc544b05a258610a9c61081c565b816001600160a01b0316836001600160a01b03161415610ba05760405162461bcd60e51b815260040161041b9061172d565b6001600160a01b0383811660008181526005602090815260408083209487168084529490915290819020805460ff1916851515179055517f17307eab39ab6107e8899845ad3d59bd9653f200f220920489ca2b5937696c3190610c04908590611589565b60405180910390a3505050565b610c1c8484846108ec565b610c2884848484610e75565b61060d5760405162461bcd60e51b815260040161041b906115d5565b610c4d81610f90565b60008181526006602052604090208054610c6690611a2a565b15905061062c57600081815260066020526040812061062c91611169565b60408051602081019091526000815290565b6060610ca1826107f7565b6000610cab610c84565b90506000815111610ccb57604051806020016040528060008152506107a0565b80610cd58461103f565b604051602001610ce6929190611509565b6040516020818303038152906040529392505050565b80546001019055565b5490565b6001600160a01b038216610d2f5760405162461bcd60e51b815260040161041b90611882565b610d3881610e34565b15610d555760405162461bcd60e51b815260040161041b906116b2565b610d6160008383610478565b6001600160a01b0382166000908152600360205260408120805460019290610d8a9084906119bb565b909155505060008181526002602052604080822080546001600160a01b0319166001600160a01b03861690811790915590518392907fddf252ad1be2c89b69c2b068fc378daa952ba7f163c4a11628f55a4df523b3ef908290a46105d060008383610478565b610df982610e34565b610e155760405162461bcd60e51b815260040161041b906117d7565b60008281526006602090815260409091208251610478928401906111a5565b6000908152600260205260409020546001600160a01b0316151590565b610e596104e2565b6104c55760405162461bcd60e51b815260040161041b906115a7565b6000610e89846001600160a01b031661115a565b15610f8557836001600160a01b031663150b7a02610ea561081c565b8786866040518563ffffffff1660e01b8152600401610ec7949392919061154c565b602060405180830381600087803b158015610ee157600080fd5b505af1925050508015610f11575060408051601f3d908101601f19168201909252610f0e918101906114a9565b60015b610f6b573d808015610f3f576040519150601f19603f3d011682016040523d82523d6000602084013e610f44565b606091505b508051610f635760405162461bcd60e51b815260040161041b906115d5565b805181602001fd5b6001600160e01b031916630a85bd0160e11b14905061072c565b506001949350505050565b6000610f9b826104f2565b9050610fa981600084610478565b610fb4600083610820565b6001600160a01b0381166000908152600360205260408120805460019290610fdd9084906119e7565b909155505060008281526002602052604080822080546001600160a01b0319169055518391906001600160a01b038416907fddf252ad1be2c89b69c2b068fc378daa952ba7f163c4a11628f55a4df523b3ef908390a46105d081600084610478565b60608161106457506040805180820190915260018152600360fc1b602082015261031e565b8160005b811561108e578061107881611a65565b91506110879050600a836119d3565b9150611068565b60008167ffffffffffffffff8111156110b757634e487b7160e01b600052604160045260246000fd5b6040519080825280601f01601f1916602001820160405280156110e1576020820181803683370190505b5090505b841561072c576110f66001836119e7565b9150611103600a86611a80565b61110e9060306119bb565b60f81b81838151811061113157634e487b7160e01b600052603260045260246000fd5b60200101906001600160f81b031916908160001a905350611153600a866119d3565b94506110e5565b6001600160a01b03163b151590565b50805461117590611a2a565b6000825580601f10611187575061062c565b601f01602090049060005260206000209081019061062c9190611229565b8280546111b190611a2a565b90600052602060002090601f0160209004810192826111d35760008555611219565b82601f106111ec57805160ff1916838001178555611219565b82800160010185558215611219579182015b828111156112195782518255916020019190600101906111fe565b50611225929150611229565b5090565b5b80821115611225576000815560010161122a565b600067ffffffffffffffff8084111561125957611259611ac0565b604051601f8501601f19908116603f0116810190828211818310171561128157611281611ac0565b8160405280935085815286868601111561129a57600080fd5b858560208301376000602087830101525050509392505050565b80356001600160a01b038116811461031e57600080fd5b6000602082840312156112dc578081fd5b6107a0826112b4565b600080604083850312156112f7578081fd5b611300836112b4565b915061130e602084016112b4565b90509250929050565b60008060006060848603121561132b578081fd5b611334846112b4565b9250611342602085016112b4565b9150604084013590509250925092565b60008060008060808587031215611367578081fd5b611370856112b4565b935061137e602086016112b4565b925060408501359150606085013567ffffffffffffffff8111156113a0578182fd5b8501601f810187136113b0578182fd5b6113bf8782356020840161123e565b91505092959194509250565b600080604083850312156113dd578182fd5b6113e6836112b4565b9150602083013580151581146113fa578182fd5b809150509250929050565b60008060408385031215611417578182fd5b611420836112b4565b9150602083013567ffffffffffffffff81111561143b578182fd5b8301601f8101851361144b578182fd5b61145a8582356020840161123e565b9150509250929050565b60008060408385031215611476578182fd5b61147f836112b4565b946020939093013593505050565b60006020828403121561149e578081fd5b81356107a081611ad6565b6000602082840312156114ba578081fd5b81516107a081611ad6565b6000602082840312156114d6578081fd5b5035919050565b600081518084526114f58160208601602086016119fe565b601f01601f19169290920160200192915050565b6000835161151b8184602088016119fe565b83519083019061152f8183602088016119fe565b01949350505050565b6001600160a01b0391909116815260200190565b6001600160a01b038581168252841660208201526040810183905260806060820181905260009061157f908301846114dd565b9695505050505050565b901515815260200190565b6000602082526107a060208301846114dd565b60208082526014908201527314185d5cd8589b194e881b9bdd081c185d5cd95960621b604082015260600190565b60208082526032908201527f4552433732313a207472616e7366657220746f206e6f6e20455243373231526560408201527131b2b4bb32b91034b6b83632b6b2b73a32b960711b606082015260800190565b60208082526026908201527f4f776e61626c653a206e6577206f776e657220697320746865207a65726f206160408201526564647265737360d01b606082015260800190565b60208082526025908201527f4552433732313a207472616e736665722066726f6d20696e636f72726563742060408201526437bbb732b960d91b606082015260800190565b6020808252601c908201527f4552433732313a20746f6b656e20616c7265616479206d696e74656400000000604082015260600190565b60208082526024908201527f4552433732313a207472616e7366657220746f20746865207a65726f206164646040820152637265737360e01b606082015260800190565b60208082526019908201527f4552433732313a20617070726f766520746f2063616c6c657200000000000000604082015260600190565b60208082526010908201526f14185d5cd8589b194e881c185d5cd95960821b604082015260600190565b60208082526029908201527f4552433732313a2061646472657373207a65726f206973206e6f7420612076616040820152683634b21037bbb732b960b91b606082015260800190565b6020808252602e908201527f45524337323155524953746f726167653a2055524920736574206f66206e6f6e60408201526d32bc34b9ba32b73a103a37b5b2b760911b606082015260800190565b6020808252603e908201527f4552433732313a20617070726f76652063616c6c6572206973206e6f7420746f60408201527f6b656e206f776e6572206e6f7220617070726f76656420666f7220616c6c0000606082015260800190565b6020808252818101527f4552433732313a206d696e7420746f20746865207a65726f2061646472657373604082015260600190565b6020808252818101527f4f776e61626c653a2063616c6c6572206973206e6f7420746865206f776e6572604082015260600190565b60208082526018908201527f4552433732313a20696e76616c696420746f6b656e2049440000000000000000604082015260600190565b60208082526021908201527f4552433732313a20617070726f76616c20746f2063757272656e74206f776e656040820152603960f91b606082015260800190565b6020808252602e908201527f4552433732313a2063616c6c6572206973206e6f7420746f6b656e206f776e6560408201526d1c881b9bdc88185c1c1c9bdd995960921b606082015260800190565b90815260200190565b600082198211156119ce576119ce611a94565b500190565b6000826119e2576119e2611aaa565b500490565b6000828210156119f9576119f9611a94565b500390565b60005b83811015611a19578181015183820152602001611a01565b8381111561060d5750506000910152565b600281046001821680611a3e57607f821691505b60208210811415611a5f57634e487b7160e01b600052602260045260246000fd5b50919050565b6000600019821415611a7957611a79611a94565b5060010190565b600082611a8f57611a8f611aaa565b500690565b634e487b7160e01b600052601160045260246000fd5b634e487b7160e01b600052601260045260246000fd5b634e487b7160e01b600052604160045260246000fd5b6001600160e01b03198116811461062c57600080fdfea2646970667358221220fb5ae5a3014e26735c0bf188e19291f4667378ad1854fd24aadd23ab4a925d5064736f6c63430008010033",
  "linkReferences": {},
  "deployedLinkReferences": {}
}