{
  "_format": "hh-sol-artifact-1",
  "contractName": "Wearable",
  "sourceName": "contracts/Wearable.sol",
  "abi": [
    {
      "inputs": [],
      "stateMutability": "nonpayable",
      "type": "constructor"
    },
    {
      "anonymous": false,
      "inputs": [
        {
          "indexed": true,
          "internalType": "address",
          "name": "owner",
          "type": "address"
        },
        {
          "indexed": true,
          "internalType": "address",
          "name": "approved",
          "type": "address"
        },
        {
          "indexed": true,
          "internalType": "uint256",
          "name": "tokenId",
          "type": "uint256"
        }
      ],
      "name": "Approval",
      "type": "event"
    },
    {
      "anonymous": false,
      "inputs": [
        {
          "indexed": true,
          "internalType": "address",
          "name": "owner",
          "type": "address"
        },
        {
          "indexed": true,
          "internalType": "address",
          "name": "operator",
          "type": "address"
        },
        {
          "indexed": false,
          "internalType": "bool",
          "name": "approved",
          "type": "bool"
        }
      ],
      "name": "ApprovalForAll",
      "type": "event"
    },
    {
      "anonymous": false,
      "inputs": [
        {
          "indexed": true,
          "internalType": "address",
          "name": "previousOwner",
          "type": "address"
        },
        {
          "indexed": true,
          "internalType": "address",
          "name": "newOwner",
          "type": "address"
        }
      ],
      "name": "OwnershipTransferred",
      "type": "event"
    },
    {
      "anonymous": false,
      "inputs": [
        {
          "indexed": false,
          "internalType": "address",
          "name": "account",
          "type": "address"
        }
      ],
      "name": "Paused",
      "type": "event"
    },
    {
      "anonymous": false,
      "inputs": [
        {
          "indexed": true,
          "internalType": "address",
          "name": "from",
          "type": "address"
        },
        {
          "indexed": true,
          "internalType": "address",
          "name": "to",
          "type": "address"
        },
        {
          "indexed": true,
          "internalType": "uint256",
          "name": "tokenId",
          "type": "uint256"
        }
      ],
      "name": "Transfer",
      "type": "event"
    },
    {
      "anonymous": false,
      "inputs": [
        {
          "indexed": false,
          "internalType": "address",
          "name": "account",
          "type": "address"
        }
      ],
      "name": "Unpaused",
      "type": "event"
    },
    {
      "inputs": [
        {
          "internalType": "address",
          "name": "to",
          "type": "address"
        },
        {
          "internalType": "uint256",
          "name": "tokenId",
          "type": "uint256"
        }
      ],
      "name": "approve",
      "outputs": [],
      "stateMutability": "nonpayable",
      "type": "function"
    },
    {
      "inputs": [
        {
          "internalType": "address",
          "name": "owner",
          "type": "address"
        }
      ],
      "name": "balanceOf",
      "outputs": [
        {
          "internalType": "uint256",
          "name": "",
          "type": "uint256"
        }
      ],
      "stateMutability": "view",
      "type": "function"
    },
    {
      "inputs": [
        {
          "internalType": "uint256",
          "name": "tokenId",
          "type": "uint256"
        }
      ],
      "name": "destroyNFT",
      "outputs": [],
      "stateMutability": "nonpayable",
      "type": "function"
    },
    {
      "inputs": [
        {
          "internalType": "uint256",
          "name": "tokenId",
          "type": "uint256"
        }
      ],
      "name": "getApproved",
      "outputs": [
        {
          "internalType": "address",
          "name": "",
          "type": "address"
        }
      ],
      "stateMutability": "view",
      "type": "function"
    },
    {
      "inputs": [
        {
          "internalType": "address",
          "name": "owner",
          "type": "address"
        },
        {
          "internalType": "address",
          "name": "operator",
          "type": "address"
        }
      ],
      "name": "isApprovedForAll",
      "outputs": [
        {
          "internalType": "bool",
          "name": "",
          "type": "bool"
        }
      ],
      "stateMutability": "view",
      "type": "function"
    },
    {
      "inputs": [
        {
          "internalType": "address",
          "name": "recipient",
          "type": "address"
        },
        {
          "internalType": "string",
          "name": "uri",
          "type": "string"
        }
      ],
      "name": "mintNFT",
      "outputs": [
        {
          "internalType": "uint256",
          "name": "",
          "type": "uint256"
        }
      ],
      "stateMutability": "nonpayable",
      "type": "function"
    },
    {
      "inputs": [],
      "name": "name",
      "outputs": [
        {
          "internalType": "string",
          "name": "",
          "type": "string"
        }
      ],
      "stateMutability": "view",
      "type": "function"
    },
    {
      "inputs": [],
      "name": "owner",
      "outputs": [
        {
          "internalType": "address",
          "name": "",
          "type": "address"
        }
      ],
      "stateMutability": "view",
      "type": "function"
    },
    {
      "inputs": [
        {
          "internalType": "uint256",
          "name": "tokenId",
          "type": "uint256"
        }
      ],
      "name": "ownerOf",
      "outputs": [
        {
          "internalType": "address",
          "name": "",
          "type": "address"
        }
      ],
      "stateMutability": "view",
      "type": "function"
    },
    {
      "inputs": [],
      "name": "pause",
      "outputs": [],
      "stateMutability": "nonpayable",
      "type": "function"
    },
    {
      "inputs": [],
      "name": "paused",
      "outputs": [
        {
          "internalType": "bool",
          "name": "",
          "type": "bool"
        }
      ],
      "stateMutability": "view",
      "type": "function"
    },
    {
      "inputs": [],
      "name": "renounceOwnership",
      "outputs": [],
      "stateMutability": "nonpayable",
      "type": "function"
    },
    {
      "inputs": [
        {
          "internalType": "uint256",
          "name": "_tokenId",
          "type": "uint256"
        },
        {
          "internalType": "uint256",
          "name": "_salePrice",
          "type": "uint256"
        }
      ],
      "name": "royaltyInfo",
      "outputs": [
        {
          "internalType": "address",
          "name": "",
          "type": "address"
        },
        {
          "internalType": "uint256",
          "name": "",
          "type": "uint256"
        }
      ],
      "stateMutability": "view",
      "type": "function"
    },
    {
      "inputs": [
        {
          "internalType": "address",
          "name": "from",
          "type": "address"
        },
        {
          "internalType": "address",
          "name": "to",
          "type": "address"
        },
        {
          "internalType": "uint256",
          "name": "tokenId",
          "type": "uint256"
        }
      ],
      "name": "safeTransferFrom",
      "outputs": [],
      "stateMutability": "nonpayable",
      "type": "function"
    },
    {
      "inputs": [
        {
          "internalType": "address",
          "name": "from",
          "type": "address"
        },
        {
          "internalType": "address",
          "name": "to",
          "type": "address"
        },
        {
          "internalType": "uint256",
          "name": "tokenId",
          "type": "uint256"
        },
        {
          "internalType": "bytes",
          "name": "data",
          "type": "bytes"
        }
      ],
      "name": "safeTransferFrom",
      "outputs": [],
      "stateMutability": "nonpayable",
      "type": "function"
    },
    {
      "inputs": [
        {
          "internalType": "address",
          "name": "operator",
          "type": "address"
        },
        {
          "internalType": "bool",
          "name": "approved",
          "type": "bool"
        }
      ],
      "name": "setApprovalForAll",
      "outputs": [],
      "stateMutability": "nonpayable",
      "type": "function"
    },
    {
      "inputs": [
        {
          "internalType": "bytes4",
          "name": "interfaceId",
          "type": "bytes4"
        }
      ],
      "name": "supportsInterface",
      "outputs": [
        {
          "internalType": "bool",
          "name": "",
          "type": "bool"
        }
      ],
      "stateMutability": "view",
      "type": "function"
    },
    {
      "inputs": [],
      "name": "symbol",
      "outputs": [
        {
          "internalType": "string",
          "name": "",
          "type": "string"
        }
      ],
      "stateMutability": "view",
      "type": "function"
    },
    {
      "inputs": [
        {
          "internalType": "uint256",
          "name": "tokenId",
          "type": "uint256"
        }
      ],
      "name": "tokenURI",
      "outputs": [
        {
          "internalType": "string",
          "name": "",
          "type": "string"
        }
      ],
      "stateMutability": "view",
      "type": "function"
    },
    {
      "inputs": [
        {
          "internalType": "address",
          "name": "from",
          "type": "address"
        },
        {
          "internalType": "address",
          "name": "to",
          "type": "address"
        },
        {
          "internalType": "uint256",
          "name": "tokenId",
          "type": "uint256"
        }
      ],
      "name": "transferFrom",
      "outputs": [],
      "stateMutability": "nonpayable",
      "type": "function"
    },
    {
      "inputs": [
        {
          "internalType": "address",
          "name": "newOwner",
          "type": "address"
        }
      ],
      "name": "transferOwnership",
      "outputs": [],
      "stateMutability": "nonpayable",
      "type": "function"
    },
    {
      "inputs": [],
      "name": "unpause",
      "outputs": [],
      "stateMutability": "nonpayable",
      "type": "function"
    }
  ],
  "bytecode": "0x60806040523480156200001157600080fd5b5060408051808201825260088152675765617261626c6560c01b6020808301918252835180850190945260038452624f4c4160e81b9084015281519192916200005d91600291620001f4565b50805162000073906003906020840190620001f4565b505050620000906200008a620000d860201b60201c565b620000dc565b6009805460ff60a01b191690556000620000a96200012e565b9050620000d1336014620000bf8460016200034e565b620000cb91906200031b565b62000134565b50620003c7565b3390565b600980546001600160a01b038381166001600160a01b0319831681179093556040519116919082907f8be0079c531659141344cd1fd0a4f28419497f9722a3daafe3b4186f6b6457e090600090a35050565b61271090565b6200013e6200012e565b6001600160601b0316816001600160601b031611156200017b5760405162461bcd60e51b815260040162000172906200029a565b60405180910390fd5b6001600160a01b038216620001a45760405162461bcd60e51b81526004016200017290620002e4565b604080518082019091526001600160a01b039283168082526001600160601b03929092166020909101819052600080546001600160a01b031916909217909216600160a01b909202919091179055565b82805462000202906200038a565b90600052602060002090601f01602090048101928262000226576000855562000271565b82601f106200024157805160ff191683800117855562000271565b8280016001018555821562000271579182015b828111156200027157825182559160200191906001019062000254565b506200027f92915062000283565b5090565b5b808211156200027f576000815560010162000284565b6020808252602a908201527f455243323938313a20726f79616c7479206665652077696c6c206578636565646040820152692073616c65507269636560b01b606082015260800190565b60208082526019908201527f455243323938313a20696e76616c696420726563656976657200000000000000604082015260600190565b60006001600160601b03838116806200034257634e487b7160e01b83526012600452602483fd5b92169190910492915050565b60006001600160601b03828116848216811515828404821116156200038157634e487b7160e01b84526011600452602484fd5b02949350505050565b6002810460018216806200039f57607f821691505b60208210811415620003c157634e487b7160e01b600052602260045260246000fd5b50919050565b611cd380620003d76000396000f3fe608060405234801561001057600080fd5b50600436106101425760003560e01c8063715018a6116100b8578063b88d4fde1161007c578063b88d4fde14610277578063c40412b51461028a578063c87b56dd1461029d578063e985e9c5146102b0578063eacabe14146102c3578063f2fde38b146102d657610142565b8063715018a6146102445780638456cb591461024c5780638da5cb5b1461025457806395d89b411461025c578063a22cb4651461026457610142565b80632a55205a1161010a5780632a55205a146101cd5780633f4ba83a146101ee57806342842e0e146101f65780635c975abb146102095780636352211e1461021157806370a082311461022457610142565b806301ffc9a71461014757806306fdde0314610170578063081812fc14610185578063095ea7b3146101a557806323b872dd146101ba575b600080fd5b61015a6101553660046115e5565b6102e9565b604051610167919061171b565b60405180910390f35b6101786102fc565b6040516101679190611726565b61019861019336600461161d565b61038e565b60405161016791906116b1565b6101b86101b33660046115bc565b6103b5565b005b6101b86101c836600461146f565b610456565b6101e06101db366004611635565b610496565b604051610167929190611702565b6101b861054f565b6101b861020436600461146f565b610561565b61015a6105ab565b61019861021f36600461161d565b6105bb565b610237610232366004611423565b6105f0565b6040516101679190611b44565b6101b8610634565b6101b8610646565b610198610656565b610178610665565b6101b8610272366004611523565b610674565b6101b86102853660046114aa565b61068a565b6101b861029836600461161d565b6106d1565b6101786102ab36600461161d565b6106e5565b61015a6102be36600461143d565b6106f0565b6102376102d136600461155d565b61071e565b6101b86102e4366004611423565b610763565b60006102f48261079a565b90505b919050565b60606002805461030b90611bdb565b80601f016020809104026020016040519081016040528092919081815260200182805461033790611bdb565b80156103845780601f1061035957610100808354040283529160200191610384565b820191906000526020600020905b81548152906001019060200180831161036757829003601f168201915b5050505050905090565b6000610399826107a5565b506000908152600660205260409020546001600160a01b031690565b60006103c0826105bb565b9050806001600160a01b0316836001600160a01b031614156103fd5760405162461bcd60e51b81526004016103f490611ab5565b60405180910390fd5b806001600160a01b031661040f6107ca565b6001600160a01b0316148061042b575061042b816102be6107ca565b6104475760405162461bcd60e51b81526004016103f4906119b7565b61045183836107ce565b505050565b61045e61083c565b61046f6104696107ca565b82610861565b61048b5760405162461bcd60e51b81526004016103f490611af6565b6104518383836108c0565b60008281526001602090815260408083208151808301909252546001600160a01b038116808352600160a01b9091046001600160601b031692820192909252829161050b5750604080518082019091526000546001600160a01b0381168252600160a01b90046001600160601b031660208201525b60006105156109f3565b6001600160601b031682602001516001600160601b0316866105379190611b79565b6105419190611b65565b915196919550909350505050565b6105576109f9565b61055f610a38565b565b61056961083c565b6105746104696107ca565b6105905760405162461bcd60e51b81526004016103f490611af6565b61045183838360405180602001604052806000815250610a8d565b600954600160a01b900460ff1690565b6000818152600460205260408120546001600160a01b0316806102f45760405162461bcd60e51b81526004016103f490611a7e565b60006001600160a01b0382166106185760405162461bcd60e51b81526004016103f490611920565b506001600160a01b031660009081526005602052604090205490565b61063c6109f9565b61055f6000610ac0565b61064e6109f9565b61055f610b12565b6009546001600160a01b031690565b60606003805461030b90611bdb565b61068661067f6107ca565b8383610b56565b5050565b61069261083c565b6106a361069d6107ca565b83610861565b6106bf5760405162461bcd60e51b81526004016103f490611af6565b6106cb84848484610a8d565b50505050565b6106d96109f9565b6106e281610bf9565b50565b60606102f482610c02565b6001600160a01b03918216600090815260076020908152604080832093909416825291909152205460ff1690565b60006107286109f9565b61073061083c565b61073a600a610cff565b6000610746600a610d08565b90506107528482610d0c565b61075c8184610df3565b9392505050565b61076b6109f9565b6001600160a01b0381166107915760405162461bcd60e51b81526004016103f4906117b9565b6106e281610ac0565b60006102f482610e37565b6107ae81610e77565b6106e25760405162461bcd60e51b81526004016103f490611a7e565b3390565b600081815260066020526040902080546001600160a01b0319166001600160a01b0384169081179091558190610803826105bb565b6001600160a01b03167f8c5be1e5ebec7d5bd14f71427d1e84f3dd0314c0f7b2291e5b200ac8c7c3b92560405160405180910390a45050565b6108446105ab565b1561055f5760405162461bcd60e51b81526004016103f4906118f6565b60008061086d836105bb565b9050806001600160a01b0316846001600160a01b03161480610894575061089481856106f0565b806108b85750836001600160a01b03166108ad8461038e565b6001600160a01b0316145b949350505050565b826001600160a01b03166108d3826105bb565b6001600160a01b0316146108f95760405162461bcd60e51b81526004016103f4906117ff565b6001600160a01b03821661091f5760405162461bcd60e51b81526004016103f49061187b565b61092a838383610451565b6109356000826107ce565b6001600160a01b038316600090815260056020526040812080546001929061095e908490611b98565b90915550506001600160a01b038216600090815260056020526040812080546001929061098c908490611b4d565b909155505060008181526004602052604080822080546001600160a01b0319166001600160a01b0386811691821790925591518493918716917fddf252ad1be2c89b69c2b068fc378daa952ba7f163c4a11628f55a4df523b3ef91a4610451838383610451565b61271090565b610a016107ca565b6001600160a01b0316610a12610656565b6001600160a01b03161461055f5760405162461bcd60e51b81526004016103f490611a49565b610a40610e94565b6009805460ff60a01b191690557f5db9ee0a495bf2e6ff9c91a7834c1ba4fdd244a5e8aa4e537bd38aeae4b073aa610a766107ca565b604051610a8391906116b1565b60405180910390a1565b610a988484846108c0565b610aa484848484610eb8565b6106cb5760405162461bcd60e51b81526004016103f490611767565b600980546001600160a01b038381166001600160a01b0319831681179093556040519116919082907f8be0079c531659141344cd1fd0a4f28419497f9722a3daafe3b4186f6b6457e090600090a35050565b610b1a61083c565b6009805460ff60a01b1916600160a01b1790557f62e78cea01bee320cd4e420270b5ea74000d11b0c9f74754ebdbfc544b05a258610a766107ca565b816001600160a01b0316836001600160a01b03161415610b885760405162461bcd60e51b81526004016103f4906118bf565b6001600160a01b0383811660008181526007602090815260408083209487168084529490915290819020805460ff1916851515179055517f17307eab39ab6107e8899845ad3d59bd9653f200f220920489ca2b5937696c3190610bec90859061171b565b60405180910390a3505050565b6106e281610fd3565b6060610c0d826107a5565b60008281526008602052604081208054610c2690611bdb565b80601f0160208091040260200160405190810160405280929190818152602001828054610c5290611bdb565b8015610c9f5780601f10610c7457610100808354040283529160200191610c9f565b820191906000526020600020905b815481529060010190602001808311610c8257829003601f168201915b505050505090506000610cb0611013565b9050805160001415610cc4575090506102f7565b815115610cf6578082604051602001610cde929190611682565b604051602081830303815290604052925050506102f7565b6108b884611025565b80546001019055565b5490565b6001600160a01b038216610d325760405162461bcd60e51b81526004016103f490611a14565b610d3b81610e77565b15610d585760405162461bcd60e51b81526004016103f490611844565b610d6460008383610451565b6001600160a01b0382166000908152600560205260408120805460019290610d8d908490611b4d565b909155505060008181526004602052604080822080546001600160a01b0319166001600160a01b03861690811790915590518392907fddf252ad1be2c89b69c2b068fc378daa952ba7f163c4a11628f55a4df523b3ef908290a461068660008383610451565b610dfc82610e77565b610e185760405162461bcd60e51b81526004016103f490611969565b60008281526008602090815260409091208251610451928401906112c5565b60006001600160e01b031982166380ac58cd60e01b1480610e6857506001600160e01b03198216635b5e139f60e01b145b806102f457506102f48261108b565b6000908152600460205260409020546001600160a01b0316151590565b610e9c6105ab565b61055f5760405162461bcd60e51b81526004016103f490611739565b6000610ecc846001600160a01b03166110b0565b15610fc857836001600160a01b031663150b7a02610ee86107ca565b8786866040518563ffffffff1660e01b8152600401610f0a94939291906116c5565b602060405180830381600087803b158015610f2457600080fd5b505af1925050508015610f54575060408051601f3d908101601f19168201909252610f5191810190611601565b60015b610fae573d808015610f82576040519150601f19603f3d011682016040523d82523d6000602084013e610f87565b606091505b508051610fa65760405162461bcd60e51b81526004016103f490611767565b805181602001fd5b6001600160e01b031916630a85bd0160e11b1490506108b8565b506001949350505050565b610fdc816110bf565b60008181526008602052604090208054610ff590611bdb565b1590506106e25760008181526008602052604081206106e291611349565b60408051602081019091526000815290565b6060611030826107a5565b600061103a611013565b9050600081511161105a576040518060200160405280600081525061075c565b80611064846110d1565b604051602001611075929190611682565b6040516020818303038152906040529392505050565b60006001600160e01b0319821663152a902d60e11b14806102f457506102f4826111ec565b6001600160a01b03163b151590565b6110c881611205565b6106e2816112b4565b6060816110f657506040805180820190915260018152600360fc1b60208201526102f7565b8160005b8115611120578061110a81611c16565b91506111199050600a83611b65565b91506110fa565b60008167ffffffffffffffff81111561114957634e487b7160e01b600052604160045260246000fd5b6040519080825280601f01601f191660200182016040528015611173576020820181803683370190505b5090505b84156108b857611188600183611b98565b9150611195600a86611c31565b6111a0906030611b4d565b60f81b8183815181106111c357634e487b7160e01b600052603260045260246000fd5b60200101906001600160f81b031916908160001a9053506111e5600a86611b65565b9450611177565b6001600160e01b031981166301ffc9a760e01b14919050565b6000611210826105bb565b905061121e81600084610451565b6112296000836107ce565b6001600160a01b0381166000908152600560205260408120805460019290611252908490611b98565b909155505060008281526004602052604080822080546001600160a01b0319169055518391906001600160a01b038416907fddf252ad1be2c89b69c2b068fc378daa952ba7f163c4a11628f55a4df523b3ef908390a461068681600084610451565b600090815260016020526040812055565b8280546112d190611bdb565b90600052602060002090601f0160209004810192826112f35760008555611339565b82601f1061130c57805160ff1916838001178555611339565b82800160010185558215611339579182015b8281111561133957825182559160200191906001019061131e565b50611345929150611381565b5090565b50805461135590611bdb565b6000825580601f1061136757506106e2565b601f0160209004906000526020600020908101906106e291905b5b808211156113455760008155600101611382565b600067ffffffffffffffff808411156113b1576113b1611c71565b604051601f8501601f19908116603f011681019082821181831017156113d9576113d9611c71565b816040528093508581528686860111156113f257600080fd5b858560208301376000602087830101525050509392505050565b80356001600160a01b03811681146102f757600080fd5b600060208284031215611434578081fd5b61075c8261140c565b6000806040838503121561144f578081fd5b6114588361140c565b91506114666020840161140c565b90509250929050565b600080600060608486031215611483578081fd5b61148c8461140c565b925061149a6020850161140c565b9150604084013590509250925092565b600080600080608085870312156114bf578081fd5b6114c88561140c565b93506114d66020860161140c565b925060408501359150606085013567ffffffffffffffff8111156114f8578182fd5b8501601f81018713611508578182fd5b61151787823560208401611396565b91505092959194509250565b60008060408385031215611535578182fd5b61153e8361140c565b915060208301358015158114611552578182fd5b809150509250929050565b6000806040838503121561156f578182fd5b6115788361140c565b9150602083013567ffffffffffffffff811115611593578182fd5b8301601f810185136115a3578182fd5b6115b285823560208401611396565b9150509250929050565b600080604083850312156115ce578182fd5b6115d78361140c565b946020939093013593505050565b6000602082840312156115f6578081fd5b813561075c81611c87565b600060208284031215611612578081fd5b815161075c81611c87565b60006020828403121561162e578081fd5b5035919050565b60008060408385031215611647578182fd5b50508035926020909101359150565b6000815180845261166e816020860160208601611baf565b601f01601f19169290920160200192915050565b60008351611694818460208801611baf565b8351908301906116a8818360208801611baf565b01949350505050565b6001600160a01b0391909116815260200190565b6001600160a01b03858116825284166020820152604081018390526080606082018190526000906116f890830184611656565b9695505050505050565b6001600160a01b03929092168252602082015260400190565b901515815260200190565b60006020825261075c6020830184611656565b60208082526014908201527314185d5cd8589b194e881b9bdd081c185d5cd95960621b604082015260600190565b60208082526032908201527f4552433732313a207472616e7366657220746f206e6f6e20455243373231526560408201527131b2b4bb32b91034b6b83632b6b2b73a32b960711b606082015260800190565b60208082526026908201527f4f776e61626c653a206e6577206f776e657220697320746865207a65726f206160408201526564647265737360d01b606082015260800190565b60208082526025908201527f4552433732313a207472616e736665722066726f6d20696e636f72726563742060408201526437bbb732b960d91b606082015260800190565b6020808252601c908201527f4552433732313a20746f6b656e20616c7265616479206d696e74656400000000604082015260600190565b60208082526024908201527f4552433732313a207472616e7366657220746f20746865207a65726f206164646040820152637265737360e01b606082015260800190565b60208082526019908201527f4552433732313a20617070726f766520746f2063616c6c657200000000000000604082015260600190565b60208082526010908201526f14185d5cd8589b194e881c185d5cd95960821b604082015260600190565b60208082526029908201527f4552433732313a2061646472657373207a65726f206973206e6f7420612076616040820152683634b21037bbb732b960b91b606082015260800190565b6020808252602e908201527f45524337323155524953746f726167653a2055524920736574206f66206e6f6e60408201526d32bc34b9ba32b73a103a37b5b2b760911b606082015260800190565b6020808252603e908201527f4552433732313a20617070726f76652063616c6c6572206973206e6f7420746f60408201527f6b656e206f776e6572206e6f7220617070726f76656420666f7220616c6c0000606082015260800190565b6020808252818101527f4552433732313a206d696e7420746f20746865207a65726f2061646472657373604082015260600190565b6020808252818101527f4f776e61626c653a2063616c6c6572206973206e6f7420746865206f776e6572604082015260600190565b60208082526018908201527f4552433732313a20696e76616c696420746f6b656e2049440000000000000000604082015260600190565b60208082526021908201527f4552433732313a20617070726f76616c20746f2063757272656e74206f776e656040820152603960f91b606082015260800190565b6020808252602e908201527f4552433732313a2063616c6c6572206973206e6f7420746f6b656e206f776e6560408201526d1c881b9bdc88185c1c1c9bdd995960921b606082015260800190565b90815260200190565b60008219821115611b6057611b60611c45565b500190565b600082611b7457611b74611c5b565b500490565b6000816000190483118215151615611b9357611b93611c45565b500290565b600082821015611baa57611baa611c45565b500390565b60005b83811015611bca578181015183820152602001611bb2565b838111156106cb5750506000910152565b600281046001821680611bef57607f821691505b60208210811415611c1057634e487b7160e01b600052602260045260246000fd5b50919050565b6000600019821415611c2a57611c2a611c45565b5060010190565b600082611c4057611c40611c5b565b500690565b634e487b7160e01b600052601160045260246000fd5b634e487b7160e01b600052601260045260246000fd5b634e487b7160e01b600052604160045260246000fd5b6001600160e01b0319811681146106e257600080fdfea26469706673582212200bc895563b4ba626f850d375c5827fd725afbbce5246b599abfa10a506cf267464736f6c63430008010033",
  "linkReferences": {},
  "deployedLinkReferences": {}
}