{
  "_format": "hh-sol-artifact-1",
  "contractName": "Wearable",
  "sourceName": "contracts/Wearable.sol",
  "abi": [
    {
      "inputs": [],
      "stateMutability": "nonpayable",
      "type": "constructor"
    },
    {
      "anonymous": false,
      "inputs": [
        {
          "indexed": true,
          "internalType": "address",
          "name": "owner",
          "type": "address"
        },
        {
          "indexed": true,
          "internalType": "address",
          "name": "approved",
          "type": "address"
        },
        {
          "indexed": true,
          "internalType": "uint256",
          "name": "tokenId",
          "type": "uint256"
        }
      ],
      "name": "Approval",
      "type": "event"
    },
    {
      "anonymous": false,
      "inputs": [
        {
          "indexed": true,
          "internalType": "address",
          "name": "owner",
          "type": "address"
        },
        {
          "indexed": true,
          "internalType": "address",
          "name": "operator",
          "type": "address"
        },
        {
          "indexed": false,
          "internalType": "bool",
          "name": "approved",
          "type": "bool"
        }
      ],
      "name": "ApprovalForAll",
      "type": "event"
    },
    {
      "anonymous": false,
      "inputs": [
        {
          "indexed": true,
          "internalType": "address",
          "name": "previousOwner",
          "type": "address"
        },
        {
          "indexed": true,
          "internalType": "address",
          "name": "newOwner",
          "type": "address"
        }
      ],
      "name": "OwnershipTransferred",
      "type": "event"
    },
    {
      "anonymous": false,
      "inputs": [
        {
          "indexed": true,
          "internalType": "address",
          "name": "from",
          "type": "address"
        },
        {
          "indexed": true,
          "internalType": "address",
          "name": "to",
          "type": "address"
        },
        {
          "indexed": true,
          "internalType": "uint256",
          "name": "tokenId",
          "type": "uint256"
        }
      ],
      "name": "Transfer",
      "type": "event"
    },
    {
      "inputs": [
        {
          "internalType": "address",
          "name": "to",
          "type": "address"
        },
        {
          "internalType": "uint256",
          "name": "tokenId",
          "type": "uint256"
        }
      ],
      "name": "approve",
      "outputs": [],
      "stateMutability": "nonpayable",
      "type": "function"
    },
    {
      "inputs": [
        {
          "internalType": "address",
          "name": "owner",
          "type": "address"
        }
      ],
      "name": "balanceOf",
      "outputs": [
        {
          "internalType": "uint256",
          "name": "",
          "type": "uint256"
        }
      ],
      "stateMutability": "view",
      "type": "function"
    },
    {
      "inputs": [
        {
          "internalType": "uint256",
          "name": "tokenId",
          "type": "uint256"
        }
      ],
      "name": "getApproved",
      "outputs": [
        {
          "internalType": "address",
          "name": "",
          "type": "address"
        }
      ],
      "stateMutability": "view",
      "type": "function"
    },
    {
      "inputs": [
        {
          "internalType": "address",
          "name": "owner",
          "type": "address"
        },
        {
          "internalType": "address",
          "name": "operator",
          "type": "address"
        }
      ],
      "name": "isApprovedForAll",
      "outputs": [
        {
          "internalType": "bool",
          "name": "",
          "type": "bool"
        }
      ],
      "stateMutability": "view",
      "type": "function"
    },
    {
      "inputs": [
        {
          "internalType": "address",
          "name": "recipient",
          "type": "address"
        },
        {
          "internalType": "string",
          "name": "tokenURI",
          "type": "string"
        }
      ],
      "name": "mintNFT",
      "outputs": [
        {
          "internalType": "uint256",
          "name": "",
          "type": "uint256"
        }
      ],
      "stateMutability": "nonpayable",
      "type": "function"
    },
    {
      "inputs": [],
      "name": "name",
      "outputs": [
        {
          "internalType": "string",
          "name": "",
          "type": "string"
        }
      ],
      "stateMutability": "view",
      "type": "function"
    },
    {
      "inputs": [],
      "name": "owner",
      "outputs": [
        {
          "internalType": "address",
          "name": "",
          "type": "address"
        }
      ],
      "stateMutability": "view",
      "type": "function"
    },
    {
      "inputs": [
        {
          "internalType": "uint256",
          "name": "tokenId",
          "type": "uint256"
        }
      ],
      "name": "ownerOf",
      "outputs": [
        {
          "internalType": "address",
          "name": "",
          "type": "address"
        }
      ],
      "stateMutability": "view",
      "type": "function"
    },
    {
      "inputs": [],
      "name": "renounceOwnership",
      "outputs": [],
      "stateMutability": "nonpayable",
      "type": "function"
    },
    {
      "inputs": [
        {
          "internalType": "address",
          "name": "from",
          "type": "address"
        },
        {
          "internalType": "address",
          "name": "to",
          "type": "address"
        },
        {
          "internalType": "uint256",
          "name": "tokenId",
          "type": "uint256"
        }
      ],
      "name": "safeTransferFrom",
      "outputs": [],
      "stateMutability": "nonpayable",
      "type": "function"
    },
    {
      "inputs": [
        {
          "internalType": "address",
          "name": "from",
          "type": "address"
        },
        {
          "internalType": "address",
          "name": "to",
          "type": "address"
        },
        {
          "internalType": "uint256",
          "name": "tokenId",
          "type": "uint256"
        },
        {
          "internalType": "bytes",
          "name": "data",
          "type": "bytes"
        }
      ],
      "name": "safeTransferFrom",
      "outputs": [],
      "stateMutability": "nonpayable",
      "type": "function"
    },
    {
      "inputs": [
        {
          "internalType": "address",
          "name": "operator",
          "type": "address"
        },
        {
          "internalType": "bool",
          "name": "approved",
          "type": "bool"
        }
      ],
      "name": "setApprovalForAll",
      "outputs": [],
      "stateMutability": "nonpayable",
      "type": "function"
    },
    {
      "inputs": [
        {
          "internalType": "bytes4",
          "name": "interfaceId",
          "type": "bytes4"
        }
      ],
      "name": "supportsInterface",
      "outputs": [
        {
          "internalType": "bool",
          "name": "",
          "type": "bool"
        }
      ],
      "stateMutability": "view",
      "type": "function"
    },
    {
      "inputs": [],
      "name": "symbol",
      "outputs": [
        {
          "internalType": "string",
          "name": "",
          "type": "string"
        }
      ],
      "stateMutability": "view",
      "type": "function"
    },
    {
      "inputs": [
        {
          "internalType": "uint256",
          "name": "tokenId",
          "type": "uint256"
        }
      ],
      "name": "tokenURI",
      "outputs": [
        {
          "internalType": "string",
          "name": "",
          "type": "string"
        }
      ],
      "stateMutability": "view",
      "type": "function"
    },
    {
      "inputs": [
        {
          "internalType": "address",
          "name": "from",
          "type": "address"
        },
        {
          "internalType": "address",
          "name": "to",
          "type": "address"
        },
        {
          "internalType": "uint256",
          "name": "tokenId",
          "type": "uint256"
        }
      ],
      "name": "transferFrom",
      "outputs": [],
      "stateMutability": "nonpayable",
      "type": "function"
    },
    {
      "inputs": [
        {
          "internalType": "address",
          "name": "newOwner",
          "type": "address"
        }
      ],
      "name": "transferOwnership",
      "outputs": [],
      "stateMutability": "nonpayable",
      "type": "function"
    }
  ],
  "bytecode": "0x60806040523480156200001157600080fd5b5060408051808201825260088152675765617261626c6560c01b6020808301918252835180850190945260038452624f4c4160e81b9084015281519192916200005d91600091620000ec565b50805162000073906001906020840190620000ec565b505050620000906200008a6200009660201b60201c565b6200009a565b620001cf565b3390565b600780546001600160a01b038381166001600160a01b0319831681179093556040519116919082907f8be0079c531659141344cd1fd0a4f28419497f9722a3daafe3b4186f6b6457e090600090a35050565b828054620000fa9062000192565b90600052602060002090601f0160209004810192826200011e576000855562000169565b82601f106200013957805160ff191683800117855562000169565b8280016001018555821562000169579182015b82811115620001695782518255916020019190600101906200014c565b50620001779291506200017b565b5090565b5b808211156200017757600081556001016200017c565b600281046001821680620001a757607f821691505b60208210811415620001c957634e487b7160e01b600052602260045260246000fd5b50919050565b6117e480620001df6000396000f3fe608060405234801561001057600080fd5b506004361061010b5760003560e01c8063715018a6116100a2578063b88d4fde11610071578063b88d4fde14610207578063c87b56dd1461021a578063e985e9c51461022d578063eacabe1414610240578063f2fde38b146102535761010b565b8063715018a6146101dc5780638da5cb5b146101e457806395d89b41146101ec578063a22cb465146101f45761010b565b806323b872dd116100de57806323b872dd1461018357806342842e0e146101965780636352211e146101a957806370a08231146101bc5761010b565b806301ffc9a71461011057806306fdde0314610139578063081812fc1461014e578063095ea7b31461016e575b600080fd5b61012361011e3660046111a7565b610266565b60405161013091906112a3565b60405180910390f35b6101416102ae565b60405161013091906112ae565b61016161015c3660046111df565b610340565b6040516101309190611252565b61018161017c36600461117e565b610367565b005b610181610191366004611031565b610408565b6101816101a4366004611031565b610440565b6101616101b73660046111df565b61045b565b6101cf6101ca366004610fe5565b610490565b6040516101309190611674565b6101816104d4565b6101616104e8565b6101416104f7565b6101816102023660046110e5565b610506565b61018161021536600461106c565b61051c565b6101416102283660046111df565b61055b565b61012361023b366004610fff565b610660565b6101cf61024e36600461111f565b61068e565b610181610261366004610fe5565b6106cb565b60006001600160e01b031982166380ac58cd60e01b148061029757506001600160e01b03198216635b5e139f60e01b145b806102a657506102a682610705565b90505b919050565b6060600080546102bd906116ec565b80601f01602080910402602001604051908101604052809291908181526020018280546102e9906116ec565b80156103365780601f1061030b57610100808354040283529160200191610336565b820191906000526020600020905b81548152906001019060200180831161031957829003601f168201915b5050505050905090565b600061034b8261071e565b506000908152600460205260409020546001600160a01b031690565b60006103728261045b565b9050806001600160a01b0316836001600160a01b031614156103af5760405162461bcd60e51b81526004016103a6906115e5565b60405180910390fd5b806001600160a01b03166103c1610743565b6001600160a01b031614806103dd57506103dd8161023b610743565b6103f95760405162461bcd60e51b81526004016103a6906114e7565b6104038383610747565b505050565b610419610413610743565b826107b5565b6104355760405162461bcd60e51b81526004016103a690611626565b610403838383610813565b6104038383836040518060200160405280600081525061051c565b6000818152600260205260408120546001600160a01b0316806102a65760405162461bcd60e51b81526004016103a6906115ae565b60006001600160a01b0382166104b85760405162461bcd60e51b81526004016103a690611450565b506001600160a01b031660009081526003602052604090205490565b6104dc610946565b6104e66000610985565b565b6007546001600160a01b031690565b6060600180546102bd906116ec565b610518610511610743565b83836109d7565b5050565b61052d610527610743565b836107b5565b6105495760405162461bcd60e51b81526004016103a690611626565b61055584848484610a7a565b50505050565b60606105668261071e565b6000828152600660205260408120805461057f906116ec565b80601f01602080910402602001604051908101604052809291908181526020018280546105ab906116ec565b80156105f85780601f106105cd576101008083540402835291602001916105f8565b820191906000526020600020905b8154815290600101906020018083116105db57829003601f168201915b505050505090506000610609610aad565b905080516000141561061d575090506102a9565b81511561064f578082604051602001610637929190611223565b604051602081830303815290604052925050506102a9565b61065884610abf565b949350505050565b6001600160a01b03918216600090815260056020908152604080832093909416825291909152205460ff1690565b6000610698610946565b6106a26008610b25565b60006106ae6008610b2e565b90506106ba8482610b32565b6106c48184610c19565b9392505050565b6106d3610946565b6001600160a01b0381166106f95760405162461bcd60e51b81526004016103a690611313565b61070281610985565b50565b6001600160e01b031981166301ffc9a760e01b14919050565b61072781610c5d565b6107025760405162461bcd60e51b81526004016103a6906115ae565b3390565b600081815260046020526040902080546001600160a01b0319166001600160a01b038416908117909155819061077c8261045b565b6001600160a01b03167f8c5be1e5ebec7d5bd14f71427d1e84f3dd0314c0f7b2291e5b200ac8c7c3b92560405160405180910390a45050565b6000806107c18361045b565b9050806001600160a01b0316846001600160a01b031614806107e857506107e88185610660565b806106585750836001600160a01b031661080184610340565b6001600160a01b031614949350505050565b826001600160a01b03166108268261045b565b6001600160a01b03161461084c5760405162461bcd60e51b81526004016103a690611359565b6001600160a01b0382166108725760405162461bcd60e51b81526004016103a6906113d5565b61087d838383610403565b610888600082610747565b6001600160a01b03831660009081526003602052604081208054600192906108b19084906116a9565b90915550506001600160a01b03821660009081526003602052604081208054600192906108df90849061167d565b909155505060008181526002602052604080822080546001600160a01b0319166001600160a01b0386811691821790925591518493918716917fddf252ad1be2c89b69c2b068fc378daa952ba7f163c4a11628f55a4df523b3ef91a4610403838383610403565b61094e610743565b6001600160a01b031661095f6104e8565b6001600160a01b0316146104e65760405162461bcd60e51b81526004016103a690611579565b600780546001600160a01b038381166001600160a01b0319831681179093556040519116919082907f8be0079c531659141344cd1fd0a4f28419497f9722a3daafe3b4186f6b6457e090600090a35050565b816001600160a01b0316836001600160a01b03161415610a095760405162461bcd60e51b81526004016103a690611419565b6001600160a01b0383811660008181526005602090815260408083209487168084529490915290819020805460ff1916851515179055517f17307eab39ab6107e8899845ad3d59bd9653f200f220920489ca2b5937696c3190610a6d9085906112a3565b60405180910390a3505050565b610a85848484610813565b610a9184848484610c7a565b6105555760405162461bcd60e51b81526004016103a6906112c1565b60408051602081019091526000815290565b6060610aca8261071e565b6000610ad4610aad565b90506000815111610af457604051806020016040528060008152506106c4565b80610afe84610d95565b604051602001610b0f929190611223565b6040516020818303038152906040529392505050565b80546001019055565b5490565b6001600160a01b038216610b585760405162461bcd60e51b81526004016103a690611544565b610b6181610c5d565b15610b7e5760405162461bcd60e51b81526004016103a69061139e565b610b8a60008383610403565b6001600160a01b0382166000908152600360205260408120805460019290610bb390849061167d565b909155505060008181526002602052604080822080546001600160a01b0319166001600160a01b03861690811790915590518392907fddf252ad1be2c89b69c2b068fc378daa952ba7f163c4a11628f55a4df523b3ef908290a461051860008383610403565b610c2282610c5d565b610c3e5760405162461bcd60e51b81526004016103a690611499565b6000828152600660209081526040909120825161040392840190610ebf565b6000908152600260205260409020546001600160a01b0316151590565b6000610c8e846001600160a01b0316610eb0565b15610d8a57836001600160a01b031663150b7a02610caa610743565b8786866040518563ffffffff1660e01b8152600401610ccc9493929190611266565b602060405180830381600087803b158015610ce657600080fd5b505af1925050508015610d16575060408051601f3d908101601f19168201909252610d13918101906111c3565b60015b610d70573d808015610d44576040519150601f19603f3d011682016040523d82523d6000602084013e610d49565b606091505b508051610d685760405162461bcd60e51b81526004016103a6906112c1565b805181602001fd5b6001600160e01b031916630a85bd0160e11b149050610658565b506001949350505050565b606081610dba57506040805180820190915260018152600360fc1b60208201526102a9565b8160005b8115610de45780610dce81611727565b9150610ddd9050600a83611695565b9150610dbe565b60008167ffffffffffffffff811115610e0d57634e487b7160e01b600052604160045260246000fd5b6040519080825280601f01601f191660200182016040528015610e37576020820181803683370190505b5090505b841561065857610e4c6001836116a9565b9150610e59600a86611742565b610e6490603061167d565b60f81b818381518110610e8757634e487b7160e01b600052603260045260246000fd5b60200101906001600160f81b031916908160001a905350610ea9600a86611695565b9450610e3b565b6001600160a01b03163b151590565b828054610ecb906116ec565b90600052602060002090601f016020900481019282610eed5760008555610f33565b82601f10610f0657805160ff1916838001178555610f33565b82800160010185558215610f33579182015b82811115610f33578251825591602001919060010190610f18565b50610f3f929150610f43565b5090565b5b80821115610f3f5760008155600101610f44565b600067ffffffffffffffff80841115610f7357610f73611782565b604051601f8501601f19908116603f01168101908282118183101715610f9b57610f9b611782565b81604052809350858152868686011115610fb457600080fd5b858560208301376000602087830101525050509392505050565b80356001600160a01b03811681146102a957600080fd5b600060208284031215610ff6578081fd5b6106c482610fce565b60008060408385031215611011578081fd5b61101a83610fce565b915061102860208401610fce565b90509250929050565b600080600060608486031215611045578081fd5b61104e84610fce565b925061105c60208501610fce565b9150604084013590509250925092565b60008060008060808587031215611081578081fd5b61108a85610fce565b935061109860208601610fce565b925060408501359150606085013567ffffffffffffffff8111156110ba578182fd5b8501601f810187136110ca578182fd5b6110d987823560208401610f58565b91505092959194509250565b600080604083850312156110f7578182fd5b61110083610fce565b915060208301358015158114611114578182fd5b809150509250929050565b60008060408385031215611131578182fd5b61113a83610fce565b9150602083013567ffffffffffffffff811115611155578182fd5b8301601f81018513611165578182fd5b61117485823560208401610f58565b9150509250929050565b60008060408385031215611190578182fd5b61119983610fce565b946020939093013593505050565b6000602082840312156111b8578081fd5b81356106c481611798565b6000602082840312156111d4578081fd5b81516106c481611798565b6000602082840312156111f0578081fd5b5035919050565b6000815180845261120f8160208601602086016116c0565b601f01601f19169290920160200192915050565b600083516112358184602088016116c0565b8351908301906112498183602088016116c0565b01949350505050565b6001600160a01b0391909116815260200190565b6001600160a01b0385811682528416602082015260408101839052608060608201819052600090611299908301846111f7565b9695505050505050565b901515815260200190565b6000602082526106c460208301846111f7565b60208082526032908201527f4552433732313a207472616e7366657220746f206e6f6e20455243373231526560408201527131b2b4bb32b91034b6b83632b6b2b73a32b960711b606082015260800190565b60208082526026908201527f4f776e61626c653a206e6577206f776e657220697320746865207a65726f206160408201526564647265737360d01b606082015260800190565b60208082526025908201527f4552433732313a207472616e736665722066726f6d20696e636f72726563742060408201526437bbb732b960d91b606082015260800190565b6020808252601c908201527f4552433732313a20746f6b656e20616c7265616479206d696e74656400000000604082015260600190565b60208082526024908201527f4552433732313a207472616e7366657220746f20746865207a65726f206164646040820152637265737360e01b606082015260800190565b60208082526019908201527f4552433732313a20617070726f766520746f2063616c6c657200000000000000604082015260600190565b60208082526029908201527f4552433732313a2061646472657373207a65726f206973206e6f7420612076616040820152683634b21037bbb732b960b91b606082015260800190565b6020808252602e908201527f45524337323155524953746f726167653a2055524920736574206f66206e6f6e60408201526d32bc34b9ba32b73a103a37b5b2b760911b606082015260800190565b6020808252603e908201527f4552433732313a20617070726f76652063616c6c6572206973206e6f7420746f60408201527f6b656e206f776e6572206e6f7220617070726f76656420666f7220616c6c0000606082015260800190565b6020808252818101527f4552433732313a206d696e7420746f20746865207a65726f2061646472657373604082015260600190565b6020808252818101527f4f776e61626c653a2063616c6c6572206973206e6f7420746865206f776e6572604082015260600190565b60208082526018908201527f4552433732313a20696e76616c696420746f6b656e2049440000000000000000604082015260600190565b60208082526021908201527f4552433732313a20617070726f76616c20746f2063757272656e74206f776e656040820152603960f91b606082015260800190565b6020808252602e908201527f4552433732313a2063616c6c6572206973206e6f7420746f6b656e206f776e6560408201526d1c881b9bdc88185c1c1c9bdd995960921b606082015260800190565b90815260200190565b6000821982111561169057611690611756565b500190565b6000826116a4576116a461176c565b500490565b6000828210156116bb576116bb611756565b500390565b60005b838110156116db5781810151838201526020016116c3565b838111156105555750506000910152565b60028104600182168061170057607f821691505b6020821081141561172157634e487b7160e01b600052602260045260246000fd5b50919050565b600060001982141561173b5761173b611756565b5060010190565b6000826117515761175161176c565b500690565b634e487b7160e01b600052601160045260246000fd5b634e487b7160e01b600052601260045260246000fd5b634e487b7160e01b600052604160045260246000fd5b6001600160e01b03198116811461070257600080fdfea2646970667358221220ee349a7c9542e2a7dc5c5eb44cecca07c0d6f68a915ed5bd56bee68bd965d6c064736f6c63430008010033",
  "linkReferences": {},
  "deployedLinkReferences": {}
}