{
  "_format": "hh-sol-artifact-1",
  "contractName": "Wearable",
  "sourceName": "contracts/Wearable.sol",
  "abi": [
    {
      "inputs": [],
      "stateMutability": "nonpayable",
      "type": "constructor"
    },
    {
      "anonymous": false,
      "inputs": [
        {
          "indexed": true,
          "internalType": "address",
          "name": "owner",
          "type": "address"
        },
        {
          "indexed": true,
          "internalType": "address",
          "name": "approved",
          "type": "address"
        },
        {
          "indexed": true,
          "internalType": "uint256",
          "name": "tokenId",
          "type": "uint256"
        }
      ],
      "name": "Approval",
      "type": "event"
    },
    {
      "anonymous": false,
      "inputs": [
        {
          "indexed": true,
          "internalType": "address",
          "name": "owner",
          "type": "address"
        },
        {
          "indexed": true,
          "internalType": "address",
          "name": "operator",
          "type": "address"
        },
        {
          "indexed": false,
          "internalType": "bool",
          "name": "approved",
          "type": "bool"
        }
      ],
      "name": "ApprovalForAll",
      "type": "event"
    },
    {
      "anonymous": false,
      "inputs": [
        {
          "indexed": true,
          "internalType": "address",
          "name": "previousOwner",
          "type": "address"
        },
        {
          "indexed": true,
          "internalType": "address",
          "name": "newOwner",
          "type": "address"
        }
      ],
      "name": "OwnershipTransferred",
      "type": "event"
    },
    {
      "anonymous": false,
      "inputs": [
        {
          "indexed": false,
          "internalType": "address",
          "name": "account",
          "type": "address"
        }
      ],
      "name": "Paused",
      "type": "event"
    },
    {
      "anonymous": false,
      "inputs": [
        {
          "indexed": true,
          "internalType": "address",
          "name": "from",
          "type": "address"
        },
        {
          "indexed": true,
          "internalType": "address",
          "name": "to",
          "type": "address"
        },
        {
          "indexed": true,
          "internalType": "uint256",
          "name": "tokenId",
          "type": "uint256"
        }
      ],
      "name": "Transfer",
      "type": "event"
    },
    {
      "anonymous": false,
      "inputs": [
        {
          "indexed": false,
          "internalType": "address",
          "name": "account",
          "type": "address"
        }
      ],
      "name": "Unpaused",
      "type": "event"
    },
    {
      "inputs": [
        {
          "internalType": "address",
          "name": "to",
          "type": "address"
        },
        {
          "internalType": "uint256",
          "name": "tokenId",
          "type": "uint256"
        }
      ],
      "name": "approve",
      "outputs": [],
      "stateMutability": "nonpayable",
      "type": "function"
    },
    {
      "inputs": [
        {
          "internalType": "address",
          "name": "owner",
          "type": "address"
        }
      ],
      "name": "balanceOf",
      "outputs": [
        {
          "internalType": "uint256",
          "name": "",
          "type": "uint256"
        }
      ],
      "stateMutability": "view",
      "type": "function"
    },
    {
      "inputs": [
        {
          "internalType": "uint256",
          "name": "tokenId",
          "type": "uint256"
        }
      ],
      "name": "destroyNFT",
      "outputs": [],
      "stateMutability": "nonpayable",
      "type": "function"
    },
    {
      "inputs": [
        {
          "internalType": "uint256",
          "name": "tokenId",
          "type": "uint256"
        }
      ],
      "name": "getApproved",
      "outputs": [
        {
          "internalType": "address",
          "name": "",
          "type": "address"
        }
      ],
      "stateMutability": "view",
      "type": "function"
    },
    {
      "inputs": [
        {
          "internalType": "address",
          "name": "owner",
          "type": "address"
        },
        {
          "internalType": "address",
          "name": "operator",
          "type": "address"
        }
      ],
      "name": "isApprovedForAll",
      "outputs": [
        {
          "internalType": "bool",
          "name": "",
          "type": "bool"
        }
      ],
      "stateMutability": "view",
      "type": "function"
    },
    {
      "inputs": [
        {
          "internalType": "address",
          "name": "recipient",
          "type": "address"
        },
        {
          "internalType": "string",
          "name": "uri",
          "type": "string"
        }
      ],
      "name": "mintNFT",
      "outputs": [
        {
          "internalType": "uint256",
          "name": "",
          "type": "uint256"
        }
      ],
      "stateMutability": "nonpayable",
      "type": "function"
    },
    {
      "inputs": [],
      "name": "name",
      "outputs": [
        {
          "internalType": "string",
          "name": "",
          "type": "string"
        }
      ],
      "stateMutability": "view",
      "type": "function"
    },
    {
      "inputs": [],
      "name": "owner",
      "outputs": [
        {
          "internalType": "address",
          "name": "",
          "type": "address"
        }
      ],
      "stateMutability": "view",
      "type": "function"
    },
    {
      "inputs": [
        {
          "internalType": "uint256",
          "name": "tokenId",
          "type": "uint256"
        }
      ],
      "name": "ownerOf",
      "outputs": [
        {
          "internalType": "address",
          "name": "",
          "type": "address"
        }
      ],
      "stateMutability": "view",
      "type": "function"
    },
    {
      "inputs": [],
      "name": "pause",
      "outputs": [],
      "stateMutability": "nonpayable",
      "type": "function"
    },
    {
      "inputs": [],
      "name": "paused",
      "outputs": [
        {
          "internalType": "bool",
          "name": "",
          "type": "bool"
        }
      ],
      "stateMutability": "view",
      "type": "function"
    },
    {
      "inputs": [],
      "name": "renounceOwnership",
      "outputs": [],
      "stateMutability": "nonpayable",
      "type": "function"
    },
    {
      "inputs": [
        {
          "internalType": "uint256",
          "name": "_tokenId",
          "type": "uint256"
        },
        {
          "internalType": "uint256",
          "name": "_salePrice",
          "type": "uint256"
        }
      ],
      "name": "royaltyInfo",
      "outputs": [
        {
          "internalType": "address",
          "name": "",
          "type": "address"
        },
        {
          "internalType": "uint256",
          "name": "",
          "type": "uint256"
        }
      ],
      "stateMutability": "view",
      "type": "function"
    },
    {
      "inputs": [
        {
          "internalType": "address",
          "name": "from",
          "type": "address"
        },
        {
          "internalType": "address",
          "name": "to",
          "type": "address"
        },
        {
          "internalType": "uint256",
          "name": "tokenId",
          "type": "uint256"
        }
      ],
      "name": "safeTransferFrom",
      "outputs": [],
      "stateMutability": "nonpayable",
      "type": "function"
    },
    {
      "inputs": [
        {
          "internalType": "address",
          "name": "from",
          "type": "address"
        },
        {
          "internalType": "address",
          "name": "to",
          "type": "address"
        },
        {
          "internalType": "uint256",
          "name": "tokenId",
          "type": "uint256"
        },
        {
          "internalType": "bytes",
          "name": "data",
          "type": "bytes"
        }
      ],
      "name": "safeTransferFrom",
      "outputs": [],
      "stateMutability": "nonpayable",
      "type": "function"
    },
    {
      "inputs": [
        {
          "internalType": "address",
          "name": "operator",
          "type": "address"
        },
        {
          "internalType": "bool",
          "name": "approved",
          "type": "bool"
        }
      ],
      "name": "setApprovalForAll",
      "outputs": [],
      "stateMutability": "nonpayable",
      "type": "function"
    },
    {
      "inputs": [
        {
          "internalType": "address",
          "name": "_receiver",
          "type": "address"
        },
        {
          "internalType": "uint96",
          "name": "_royaltyFeesInBips",
          "type": "uint96"
        }
      ],
      "name": "setRoyaltyInfo",
      "outputs": [],
      "stateMutability": "nonpayable",
      "type": "function"
    },
    {
      "inputs": [
        {
          "internalType": "bytes4",
          "name": "interfaceId",
          "type": "bytes4"
        }
      ],
      "name": "supportsInterface",
      "outputs": [
        {
          "internalType": "bool",
          "name": "",
          "type": "bool"
        }
      ],
      "stateMutability": "view",
      "type": "function"
    },
    {
      "inputs": [],
      "name": "symbol",
      "outputs": [
        {
          "internalType": "string",
          "name": "",
          "type": "string"
        }
      ],
      "stateMutability": "view",
      "type": "function"
    },
    {
      "inputs": [
        {
          "internalType": "uint256",
          "name": "index",
          "type": "uint256"
        }
      ],
      "name": "tokenByIndex",
      "outputs": [
        {
          "internalType": "uint256",
          "name": "",
          "type": "uint256"
        }
      ],
      "stateMutability": "view",
      "type": "function"
    },
    {
      "inputs": [
        {
          "internalType": "address",
          "name": "owner",
          "type": "address"
        },
        {
          "internalType": "uint256",
          "name": "index",
          "type": "uint256"
        }
      ],
      "name": "tokenOfOwnerByIndex",
      "outputs": [
        {
          "internalType": "uint256",
          "name": "",
          "type": "uint256"
        }
      ],
      "stateMutability": "view",
      "type": "function"
    },
    {
      "inputs": [
        {
          "internalType": "uint256",
          "name": "tokenId",
          "type": "uint256"
        }
      ],
      "name": "tokenURI",
      "outputs": [
        {
          "internalType": "string",
          "name": "",
          "type": "string"
        }
      ],
      "stateMutability": "view",
      "type": "function"
    },
    {
      "inputs": [],
      "name": "totalSupply",
      "outputs": [
        {
          "internalType": "uint256",
          "name": "",
          "type": "uint256"
        }
      ],
      "stateMutability": "view",
      "type": "function"
    },
    {
      "inputs": [
        {
          "internalType": "address",
          "name": "from",
          "type": "address"
        },
        {
          "internalType": "address",
          "name": "to",
          "type": "address"
        },
        {
          "internalType": "uint256",
          "name": "tokenId",
          "type": "uint256"
        }
      ],
      "name": "transferFrom",
      "outputs": [],
      "stateMutability": "nonpayable",
      "type": "function"
    },
    {
      "inputs": [
        {
          "internalType": "address",
          "name": "newOwner",
          "type": "address"
        }
      ],
      "name": "transferOwnership",
      "outputs": [],
      "stateMutability": "nonpayable",
      "type": "function"
    },
    {
      "inputs": [],
      "name": "unpause",
      "outputs": [],
      "stateMutability": "nonpayable",
      "type": "function"
    }
  ],
  "bytecode": "0x60806040523480156200001157600080fd5b5060408051808201825260088152675765617261626c6560c01b60208083019182528351808501909452600684526510d25053911560d21b9084015281519192916200006091600291620001f7565b50805162000076906003906020840190620001f7565b505050620000936200008d620000db60201b60201c565b620000df565b600d805460ff60a01b191690556000620000ac62000131565b9050620000d4336014620000c284600162000351565b620000ce91906200031e565b62000137565b50620003ca565b3390565b600d80546001600160a01b038381166001600160a01b0319831681179093556040519116919082907f8be0079c531659141344cd1fd0a4f28419497f9722a3daafe3b4186f6b6457e090600090a35050565b61271090565b6200014162000131565b6001600160601b0316816001600160601b031611156200017e5760405162461bcd60e51b815260040162000175906200029d565b60405180910390fd5b6001600160a01b038216620001a75760405162461bcd60e51b81526004016200017590620002e7565b604080518082019091526001600160a01b039283168082526001600160601b03929092166020909101819052600080546001600160a01b031916909217909216600160a01b909202919091179055565b82805462000205906200038d565b90600052602060002090601f01602090048101928262000229576000855562000274565b82601f106200024457805160ff191683800117855562000274565b8280016001018555821562000274579182015b828111156200027457825182559160200191906001019062000257565b506200028292915062000286565b5090565b5b8082111562000282576000815560010162000287565b6020808252602a908201527f455243323938313a20726f79616c7479206665652077696c6c206578636565646040820152692073616c65507269636560b01b606082015260800190565b60208082526019908201527f455243323938313a20696e76616c696420726563656976657200000000000000604082015260600190565b60006001600160601b03838116806200034557634e487b7160e01b83526012600452602483fd5b92169190910492915050565b60006001600160601b03828116848216811515828404821116156200038457634e487b7160e01b84526011600452602484fd5b02949350505050565b600281046001821680620003a257607f821691505b60208210811415620003c457634e487b7160e01b600052602260045260246000fd5b50919050565b6122ff80620003da6000396000f3fe608060405234801561001057600080fd5b506004361061018e5760003560e01c80636352211e116100de578063a22cb46511610097578063c87b56dd11610071578063c87b56dd1461032a578063e985e9c51461033d578063eacabe1414610350578063f2fde38b146103635761018e565b8063a22cb465146102f1578063b88d4fde14610304578063c40412b5146103175761018e565b80636352211e146102ab57806370a08231146102be578063715018a6146102d15780638456cb59146102d95780638da5cb5b146102e157806395d89b41146102e95761018e565b806323b872dd1161014b5780633f4ba83a116101255780633f4ba83a1461027557806342842e0e1461027d5780634f6ccce7146102905780635c975abb146102a35761018e565b806323b872dd1461022e5780632a55205a146102415780632f745c59146102625761018e565b806301ffc9a71461019357806302fa7c47146101bc57806306fdde03146101d1578063081812fc146101e6578063095ea7b31461020657806318160ddd14610219575b600080fd5b6101a66101a1366004611af9565b610376565b6040516101b39190611c2f565b60405180910390f35b6101cf6101ca366004611ac3565b610389565b005b6101d961039f565b6040516101b39190611c3a565b6101f96101f4366004611b31565b610431565b6040516101b39190611bc5565b6101cf610214366004611a9a565b610458565b6102216104f9565b6040516101b39190612170565b6101cf61023c36600461194d565b610508565b61025461024f366004611b49565b610548565b6040516101b3929190611c16565b610221610270366004611a9a565b610601565b6101cf610614565b6101cf61028b36600461194d565b610626565b61022161029e366004611b31565b610670565b6101a661067b565b6101f96102b9366004611b31565b61068b565b6102216102cc366004611901565b6106c0565b6101cf610704565b6101cf610716565b6101f9610726565b6101d9610735565b6101cf6102ff366004611a01565b610744565b6101cf610312366004611988565b610756565b6101cf610325366004611b31565b61079d565b6101d9610338366004611b31565b6107b1565b6101a661034b36600461191b565b6107bc565b61022161035e366004611a3b565b6107ea565b6101cf610371366004611901565b610828565b60006103818261085f565b90505b919050565b610391610884565b61039b82826108c3565b5050565b6060600280546103ae90612207565b80601f01602080910402602001604051908101604052809291908181526020018280546103da90612207565b80156104275780601f106103fc57610100808354040283529160200191610427565b820191906000526020600020905b81548152906001019060200180831161040a57829003601f168201915b5050505050905090565b600061043c82610972565b506000908152600660205260409020546001600160a01b031690565b60006104638261068b565b9050806001600160a01b0316836001600160a01b031614156104a05760405162461bcd60e51b815260040161049790612014565b60405180910390fd5b806001600160a01b03166104b2610997565b6001600160a01b031614806104ce57506104ce8161034b610997565b6104ea5760405162461bcd60e51b815260040161049790611f16565b6104f4838361099b565b505050565b6000610503610a09565b905090565b610510610a0f565b61052161051b610997565b82610a34565b61053d5760405162461bcd60e51b8152600401610497906120eb565b6104f4838383610a93565b60008281526001602090815260408083208151808301909252546001600160a01b038116808352600160a01b9091046001600160601b03169282019290925282916105bd5750604080518082019091526000546001600160a01b0381168252600160a01b90046001600160601b031660208201525b60006105c7610bc6565b6001600160601b031682602001516001600160601b0316866105e991906121a5565b6105f39190612191565b915196919550909350505050565b600061060d8383610bcc565b9392505050565b61061c610884565b610624610c1e565b565b61062e610a0f565b61063961051b610997565b6106555760405162461bcd60e51b8152600401610497906120eb565b6104f483838360405180602001604052806000815250610c73565b600061038182610ca6565b600d54600160a01b900460ff1690565b6000818152600460205260408120546001600160a01b0316806103815760405162461bcd60e51b815260040161049790611fdd565b60006001600160a01b0382166106e85760405162461bcd60e51b815260040161049790611e7f565b506001600160a01b031660009081526005602052604090205490565b61070c610884565b6106246000610d01565b61071e610884565b610624610d53565b600d546001600160a01b031690565b6060600380546103ae90612207565b61039b61074f610997565b8383610d97565b61075e610a0f565b61076f610769610997565b83610a34565b61078b5760405162461bcd60e51b8152600401610497906120eb565b61079784848484610c73565b50505050565b6107a5610884565b6107ae81610e3a565b50565b606061038182610e43565b6001600160a01b03918216600090815260076020908152604080832093909416825291909152205460ff1690565b60006107f4610884565b6107fc610a0f565b610806600e610f40565b6000610812600e610f49565b905061081e8482610f4d565b61060d8184611034565b610830610884565b6001600160a01b0381166108565760405162461bcd60e51b815260040161049790611d18565b6107ae81610d01565b60006001600160e01b0319821663780e9d6360e01b1480610381575061038182611078565b61088c610997565b6001600160a01b031661089d610726565b6001600160a01b0316146106245760405162461bcd60e51b815260040161049790611fa8565b6108cb610bc6565b6001600160601b0316816001600160601b031611156108fc5760405162461bcd60e51b8152600401610497906120a1565b6001600160a01b0382166109225760405162461bcd60e51b815260040161049790612139565b604080518082019091526001600160a01b039283168082526001600160601b03929092166020909101819052600080546001600160a01b031916909217909216600160a01b909202919091179055565b61097b81611083565b6107ae5760405162461bcd60e51b815260040161049790611fdd565b3390565b600081815260066020526040902080546001600160a01b0319166001600160a01b03841690811790915581906109d08261068b565b6001600160a01b03167f8c5be1e5ebec7d5bd14f71427d1e84f3dd0314c0f7b2291e5b200ac8c7c3b92560405160405180910390a45050565b600b5490565b610a1761067b565b156106245760405162461bcd60e51b815260040161049790611e55565b600080610a408361068b565b9050806001600160a01b0316846001600160a01b03161480610a675750610a6781856107bc565b80610a8b5750836001600160a01b0316610a8084610431565b6001600160a01b0316145b949350505050565b826001600160a01b0316610aa68261068b565b6001600160a01b031614610acc5760405162461bcd60e51b815260040161049790611d5e565b6001600160a01b038216610af25760405162461bcd60e51b815260040161049790611dda565b610afd8383836110a0565b610b0860008261099b565b6001600160a01b0383166000908152600560205260408120805460019290610b319084906121c4565b90915550506001600160a01b0382166000908152600560205260408120805460019290610b5f908490612179565b909155505060008181526004602052604080822080546001600160a01b0319166001600160a01b0386811691821790925591518493918716917fddf252ad1be2c89b69c2b068fc378daa952ba7f163c4a11628f55a4df523b3ef91a46104f48383836104f4565b61271090565b6000610bd7836106c0565b8210610bf55760405162461bcd60e51b815260040161049790611c7b565b506001600160a01b03919091166000908152600960209081526040808320938352929052205490565b610c266110ab565b600d805460ff60a01b191690557f5db9ee0a495bf2e6ff9c91a7834c1ba4fdd244a5e8aa4e537bd38aeae4b073aa610c5c610997565b604051610c699190611bc5565b60405180910390a1565b610c7e848484610a93565b610c8a848484846110cf565b6107975760405162461bcd60e51b815260040161049790611cc6565b6000610cb0610a09565b8210610cce5760405162461bcd60e51b815260040161049790612055565b600b8281548110610cef57634e487b7160e01b600052603260045260246000fd5b90600052602060002001549050919050565b600d80546001600160a01b038381166001600160a01b0319831681179093556040519116919082907f8be0079c531659141344cd1fd0a4f28419497f9722a3daafe3b4186f6b6457e090600090a35050565b610d5b610a0f565b600d805460ff60a01b1916600160a01b1790557f62e78cea01bee320cd4e420270b5ea74000d11b0c9f74754ebdbfc544b05a258610c5c610997565b816001600160a01b0316836001600160a01b03161415610dc95760405162461bcd60e51b815260040161049790611e1e565b6001600160a01b0383811660008181526007602090815260408083209487168084529490915290819020805460ff1916851515179055517f17307eab39ab6107e8899845ad3d59bd9653f200f220920489ca2b5937696c3190610e2d908590611c2f565b60405180910390a3505050565b6107ae816111ea565b6060610e4e82610972565b60008281526008602052604081208054610e6790612207565b80601f0160208091040260200160405190810160405280929190818152602001828054610e9390612207565b8015610ee05780601f10610eb557610100808354040283529160200191610ee0565b820191906000526020600020905b815481529060010190602001808311610ec357829003601f168201915b505050505090506000610ef161122a565b9050805160001415610f0557509050610384565b815115610f37578082604051602001610f1f929190611b96565b60405160208183030381529060405292505050610384565b610a8b8461123c565b80546001019055565b5490565b6001600160a01b038216610f735760405162461bcd60e51b815260040161049790611f73565b610f7c81611083565b15610f995760405162461bcd60e51b815260040161049790611da3565b610fa5600083836110a0565b6001600160a01b0382166000908152600560205260408120805460019290610fce908490612179565b909155505060008181526004602052604080822080546001600160a01b0319166001600160a01b03861690811790915590518392907fddf252ad1be2c89b69c2b068fc378daa952ba7f163c4a11628f55a4df523b3ef908290a461039b600083836104f4565b61103d82611083565b6110595760405162461bcd60e51b815260040161049790611ec8565b600082815260086020908152604090912082516104f4928401906117a3565b6000610381826112a2565b6000908152600460205260409020546001600160a01b0316151590565b6104f48383836112e2565b6110b361067b565b6106245760405162461bcd60e51b815260040161049790611c4d565b60006110e3846001600160a01b031661136b565b156111df57836001600160a01b031663150b7a026110ff610997565b8786866040518563ffffffff1660e01b81526004016111219493929190611bd9565b602060405180830381600087803b15801561113b57600080fd5b505af192505050801561116b575060408051601f3d908101601f1916820190925261116891810190611b15565b60015b6111c5573d808015611199576040519150601f19603f3d011682016040523d82523d6000602084013e61119e565b606091505b5080516111bd5760405162461bcd60e51b815260040161049790611cc6565b805181602001fd5b6001600160e01b031916630a85bd0160e11b149050610a8b565b506001949350505050565b6111f38161137a565b6000818152600860205260409020805461120c90612207565b1590506107ae5760008181526008602052604081206107ae91611827565b60408051602081019091526000815290565b606061124782610972565b600061125161122a565b90506000815111611271576040518060200160405280600081525061060d565b8061127b8461138c565b60405160200161128c929190611b96565b6040516020818303038152906040529392505050565b60006001600160e01b031982166380ac58cd60e01b14806112d357506001600160e01b03198216635b5e139f60e01b145b806103815750610381826114a7565b6112ed8383836104f4565b6001600160a01b03831661130957611304816114cc565b61132c565b816001600160a01b0316836001600160a01b03161461132c5761132c8382611510565b6001600160a01b03821661134857611343816115ad565b6104f4565b826001600160a01b0316826001600160a01b0316146104f4576104f48282611686565b6001600160a01b03163b151590565b611383816116ca565b6107ae81611779565b6060816113b157506040805180820190915260018152600360fc1b6020820152610384565b8160005b81156113db57806113c581612242565b91506113d49050600a83612191565b91506113b5565b60008167ffffffffffffffff81111561140457634e487b7160e01b600052604160045260246000fd5b6040519080825280601f01601f19166020018201604052801561142e576020820181803683370190505b5090505b8415610a8b576114436001836121c4565b9150611450600a8661225d565b61145b906030612179565b60f81b81838151811061147e57634e487b7160e01b600052603260045260246000fd5b60200101906001600160f81b031916908160001a9053506114a0600a86612191565b9450611432565b60006001600160e01b0319821663152a902d60e11b148061038157506103818261178a565b600b80546000838152600c60205260408120829055600182018355919091527f0175b7a638427703f0dbe7bb9bbf987a2551717b34e79f33b5b1008d1fa01db90155565b6000600161151d846106c0565b61152791906121c4565b6000838152600a602052604090205490915080821461157a576001600160a01b03841660009081526009602090815260408083208584528252808320548484528184208190558352600a90915290208190555b506000918252600a602090815260408084208490556001600160a01b039094168352600981528383209183525290812055565b600b546000906115bf906001906121c4565b6000838152600c6020526040812054600b80549394509092849081106115f557634e487b7160e01b600052603260045260246000fd5b9060005260206000200154905080600b838154811061162457634e487b7160e01b600052603260045260246000fd5b6000918252602080832090910192909255828152600c9091526040808220849055858252812055600b80548061166a57634e487b7160e01b600052603160045260246000fd5b6001900381819060005260206000200160009055905550505050565b6000611691836106c0565b6001600160a01b0390931660009081526009602090815260408083208684528252808320859055938252600a9052919091209190915550565b60006116d58261068b565b90506116e3816000846110a0565b6116ee60008361099b565b6001600160a01b03811660009081526005602052604081208054600192906117179084906121c4565b909155505060008281526004602052604080822080546001600160a01b0319169055518391906001600160a01b038416907fddf252ad1be2c89b69c2b068fc378daa952ba7f163c4a11628f55a4df523b3ef908390a461039b816000846104f4565b600090815260016020526040812055565b6001600160e01b031981166301ffc9a760e01b14919050565b8280546117af90612207565b90600052602060002090601f0160209004810192826117d15760008555611817565b82601f106117ea57805160ff1916838001178555611817565b82800160010185558215611817579182015b828111156118175782518255916020019190600101906117fc565b5061182392915061185f565b5090565b50805461183390612207565b6000825580601f1061184557506107ae565b601f0160209004906000526020600020908101906107ae91905b5b808211156118235760008155600101611860565b600067ffffffffffffffff8084111561188f5761188f61229d565b604051601f8501601f19908116603f011681019082821181831017156118b7576118b761229d565b816040528093508581528686860111156118d057600080fd5b858560208301376000602087830101525050509392505050565b80356001600160a01b038116811461038457600080fd5b600060208284031215611912578081fd5b61060d826118ea565b6000806040838503121561192d578081fd5b611936836118ea565b9150611944602084016118ea565b90509250929050565b600080600060608486031215611961578081fd5b61196a846118ea565b9250611978602085016118ea565b9150604084013590509250925092565b6000806000806080858703121561199d578081fd5b6119a6856118ea565b93506119b4602086016118ea565b925060408501359150606085013567ffffffffffffffff8111156119d6578182fd5b8501601f810187136119e6578182fd5b6119f587823560208401611874565b91505092959194509250565b60008060408385031215611a13578182fd5b611a1c836118ea565b915060208301358015158114611a30578182fd5b809150509250929050565b60008060408385031215611a4d578182fd5b611a56836118ea565b9150602083013567ffffffffffffffff811115611a71578182fd5b8301601f81018513611a81578182fd5b611a9085823560208401611874565b9150509250929050565b60008060408385031215611aac578182fd5b611ab5836118ea565b946020939093013593505050565b60008060408385031215611ad5578182fd5b611ade836118ea565b915060208301356001600160601b0381168114611a30578182fd5b600060208284031215611b0a578081fd5b813561060d816122b3565b600060208284031215611b26578081fd5b815161060d816122b3565b600060208284031215611b42578081fd5b5035919050565b60008060408385031215611b5b578182fd5b50508035926020909101359150565b60008151808452611b828160208601602086016121db565b601f01601f19169290920160200192915050565b60008351611ba88184602088016121db565b835190830190611bbc8183602088016121db565b01949350505050565b6001600160a01b0391909116815260200190565b6001600160a01b0385811682528416602082015260408101839052608060608201819052600090611c0c90830184611b6a565b9695505050505050565b6001600160a01b03929092168252602082015260400190565b901515815260200190565b60006020825261060d6020830184611b6a565b60208082526014908201527314185d5cd8589b194e881b9bdd081c185d5cd95960621b604082015260600190565b6020808252602b908201527f455243373231456e756d657261626c653a206f776e657220696e646578206f7560408201526a74206f6620626f756e647360a81b606082015260800190565b60208082526032908201527f4552433732313a207472616e7366657220746f206e6f6e20455243373231526560408201527131b2b4bb32b91034b6b83632b6b2b73a32b960711b606082015260800190565b60208082526026908201527f4f776e61626c653a206e6577206f776e657220697320746865207a65726f206160408201526564647265737360d01b606082015260800190565b60208082526025908201527f4552433732313a207472616e736665722066726f6d20696e636f72726563742060408201526437bbb732b960d91b606082015260800190565b6020808252601c908201527f4552433732313a20746f6b656e20616c7265616479206d696e74656400000000604082015260600190565b60208082526024908201527f4552433732313a207472616e7366657220746f20746865207a65726f206164646040820152637265737360e01b606082015260800190565b60208082526019908201527f4552433732313a20617070726f766520746f2063616c6c657200000000000000604082015260600190565b60208082526010908201526f14185d5cd8589b194e881c185d5cd95960821b604082015260600190565b60208082526029908201527f4552433732313a2061646472657373207a65726f206973206e6f7420612076616040820152683634b21037bbb732b960b91b606082015260800190565b6020808252602e908201527f45524337323155524953746f726167653a2055524920736574206f66206e6f6e60408201526d32bc34b9ba32b73a103a37b5b2b760911b606082015260800190565b6020808252603e908201527f4552433732313a20617070726f76652063616c6c6572206973206e6f7420746f60408201527f6b656e206f776e6572206e6f7220617070726f76656420666f7220616c6c0000606082015260800190565b6020808252818101527f4552433732313a206d696e7420746f20746865207a65726f2061646472657373604082015260600190565b6020808252818101527f4f776e61626c653a2063616c6c6572206973206e6f7420746865206f776e6572604082015260600190565b60208082526018908201527f4552433732313a20696e76616c696420746f6b656e2049440000000000000000604082015260600190565b60208082526021908201527f4552433732313a20617070726f76616c20746f2063757272656e74206f776e656040820152603960f91b606082015260800190565b6020808252602c908201527f455243373231456e756d657261626c653a20676c6f62616c20696e646578206f60408201526b7574206f6620626f756e647360a01b606082015260800190565b6020808252602a908201527f455243323938313a20726f79616c7479206665652077696c6c206578636565646040820152692073616c65507269636560b01b606082015260800190565b6020808252602e908201527f4552433732313a2063616c6c6572206973206e6f7420746f6b656e206f776e6560408201526d1c881b9bdc88185c1c1c9bdd995960921b606082015260800190565b60208082526019908201527f455243323938313a20696e76616c696420726563656976657200000000000000604082015260600190565b90815260200190565b6000821982111561218c5761218c612271565b500190565b6000826121a0576121a0612287565b500490565b60008160001904831182151516156121bf576121bf612271565b500290565b6000828210156121d6576121d6612271565b500390565b60005b838110156121f65781810151838201526020016121de565b838111156107975750506000910152565b60028104600182168061221b57607f821691505b6020821081141561223c57634e487b7160e01b600052602260045260246000fd5b50919050565b600060001982141561225657612256612271565b5060010190565b60008261226c5761226c612287565b500690565b634e487b7160e01b600052601160045260246000fd5b634e487b7160e01b600052601260045260246000fd5b634e487b7160e01b600052604160045260246000fd5b6001600160e01b0319811681146107ae57600080fdfea26469706673582212200b5f2f3fc82729e87939ab9e8b667b9dc9df7506332eff0f3406ac436307955b64736f6c63430008010033",
  "linkReferences": {},
  "deployedLinkReferences": {}
}